:020000040800F2
:1000000000000220AD610008ED440008F54400083E
:10001000FD440008054500080D45000800000000EB
:10002000000000000000000000000000F93200089D
:100030001545000800000000B5320008DD31000859
:10004000FD610008FD610008FD610008FD61000818
:10005000FD610008FD610008FD610008FD61000808
:10006000FD61000823450008FD610008FD610008EE
:10007000FD610008FD610008FD610008FD610008E8
:100080003D450008FD610008FD610008FD610008B4
:10009000FD610008FD610008FD610008FD610008C8
:1000A000FD610008FD610008FD610008FD610008B8
:1000B00065300008FD610008FD610008FD61000871
:1000C000FD610008FD610008FD610008FD61000898
:1000D000FD610008FD610008FD610008FD61000888
:1000E000FD610008FD610008FD610008FD61000878
:1000F000FD610008FD610008FD610008FD61000868
:10010000FD610008FD6100084D450008FD61000823
:10011000FD610008FD610008FD610008FD61000847
:10012000FD610008FD610008FD610008FD61000837
:10013000FD6100080000000000000000FD610008F3
:10014000FD610008FD610008FD610008FD61000817
:10015000FD610008FD610008FD610008FD61000807
:10016000FD610008FD610008FD610008FD610008F7
:10017000FD610008FD610008FD610008000000004D
:1001800000000000FD610008000000000000000009
:10019000FD6100080000000000000000FD61000893
:1001A000000000000000000000000000FD610008E9
:1001B000FD610008FD610008FD610008FD610008A7
:0401C000FD610008D5
:1001C80081F0004102E000BF83F0004330B54FEA00
:1001D80041044FEA430594EA050F08BF90EA020F6D
:1001E8001FBF54EA000C55EA020C7FEA645C7FEA00
:1001F800655C00F0E2804FEA5454D4EB5555B8BF23
:100208006D420CDD2C4480EA020281EA030382EA93
:10021800000083EA010180EA020281EA0303362D25
:1002280088BF30BD11F0004F4FEA01314FF4801CF8
:100238004CEA113102D0404261EB410113F0004F0A
:100248004FEA03334CEA133302D0524263EB4303C1
:1002580094EA050F00F0A780A4F10104D5F1200E5F
:100268000DDB02FA0EFC22FA05F2801841F10001BA
:1002780003FA0EF2801843FA05F359410EE0A5F18E
:1002880020050EF1200E012A03FA0EFC28BF4CF0BF
:10029800020C43FA05F3C01851EBE37101F0004575
:1002A80007D54FF0000EDCF1000C7EEB00006EEB82
:1002B8000101B1F5801F1BD3B1F5001F0CD349080C
:1002C8005FEA30004FEA3C0C04F101044FEA445263
:1002D80012F5800F80F09A80BCF1004F08BF5FEAEA
:1002E800500C50F1000041EB045141EA050130BDCA
:1002F8005FEA4C0C404141EB0101013C28BFB1F5DC
:10030800801FE9D291F0000F04BF01460020B1FA26
:1003180081F308BF2033A3F10B03B3F120020CDAF9
:100328000C3208DD02F1140CC2F10C0201FA0CF0D7
:1003380021FA02F10CE002F11402D8BFC2F1200C3C
:1003480001FA02F120FA0CFCDCBF41EA0C019040F2
:10035800E41AA2BF01EB0451294330BD6FEA04043B
:100368001F3C1CDA0C340EDC04F11404C4F1200226
:1003780020FA04F001FA02F340EA030021FA04F338
:1003880045EA030130BDC4F10C04C4F1200220FA8F
:1003980002F001FA04F340EA0300294630BD21FACD
:1003A80004F0294630BD94F0000F83F4801306BF93
:1003B80081F480110134013D4EE77FEA645C18BF87
:1003C8007FEA655C29D094EA050F08BF90EA020F1E
:1003D80005D054EA000C04BF1946104630BD91EA16
:1003E800030F1EBF0021002030BD5FEA545C05D119
:1003F8004000494128BF41F0004130BD14F5800458
:100408003CBF01F5801130BD01F0004545F0FE41CB
:1004180041F470014FF0000030BD7FEA645C1ABF00
:10042800194610467FEA655C1CBF0B46024650EA37
:10043800013406BF52EA033591EA030F41F4002163
:1004480030BD00BF90F0000F04BF0021704730B5E9
:100458004FF4806404F132044FF000054FF00001BE
:1004680050E700BF90F0000F04BF0021704730B57F
:100478004FF4806404F1320410F0004548BF404254
:100488004FF000013EE700BF42004FEAE2014FEAA9
:1004980031014FEA02701FBF12F07F4393F07F4F84
:1004A80081F06051704732F07F4208BF704793F087
:1004B8007F4F04BF41F40021704730B54FF460749A
:1004C80001F0004521F000411CE700BF50EA01029D
:1004D80008BF704730B54FF000050AE050EA010246
:1004E80008BF704730B511F0004502D5404261EBB6
:1004F80041014FF4806404F132045FEA915C3FF4F7
:10050800D8AE4FF003025FEADC0C18BF03325FEA93
:10051800DC0C18BF033202EBDC02C2F1200300FA44
:1005280003FC20FA02F001FA03FE40EA0E0021FA69
:1005380002F11444BDE600BF70B54FF0FF0C4CF457
:10054800E06C1CEA11541DBF1CEA135594EA0C0F09
:1005580095EA0C0F00F0DEF82C4481EA030621EA44
:100568004C5123EA4C5350EA013518BF52EA03357F
:1005780041F4801143F4801338D0A0FB02CE4FF031
:100588000005E1FB02E506F00042E0FB03E54FF061
:100598000006E1FB03569CF0000F18BF4EF0010E59
:1005A800A4F1FF04B6F5007F64F5407404D25FEA55
:1005B8004E0E6D4146EB060642EAC62141EA555108
:1005C8004FEAC52040EA5E504FEACE2EB4F1FD0C4A
:1005D80088BFBCF5E06F1ED8BEF1004F08BF5FEAC8
:1005E800500E50F1000041EB045170BD06F000467A
:1005F80046EA010140EA020081EA0301B4EB5C0427
:10060800C2BFD4EB0C0541EA045170BD41F480111E
:100618004FF0000E013C00F3AB8014F1360FDEBF43
:10062800002001F0004170BDC4F10004203C35DA1F
:100638000C341BDC04F11404C4F1200500FA05F3A2
:1006480020FA04F001FA05F240EA020001F0004243
:1006580021F0004110EBD37021FA04F642EB0601B9
:100668005EEA430E08BF20EAD37070BDC4F10C04E3
:10067800C4F1200500FA04F320FA05F001FA04F2A7
:1006880040EA020001F0004110EBD37041F1000193
:100698005EEA430E08BF20EAD37070BDC4F120059E
:1006A80000FA05F24EEA020E20FA04F301FA05F206
:1006B80043EA020321FA04F001F0004121FA04F2AE
:1006C80020EA020000EBD3705EEA430E08BF20EA7E
:1006D800D37070BD94F0000F0FD101F000464000B8
:1006E80041EB010111F4801F08BF013CF7D041EA3A
:1006F800060195F0000F18BF704703F0004652003E
:1007080043EB030313F4801F08BF013DF7D043EA0E
:100718000603704794EA0C0F0CEA135518BF95EAC4
:100728000C0F0CD050EA410618BF52EA4306D1D14B
:1007380081EA030101F000414FF0000070BD50EA6A
:10074800410606BF1046194652EA430619D094EAF4
:100758000C0F02D150EA013613D195EA0C0F05D1DE
:1007680052EA03361CBF104619460AD181EA030132
:1007780001F0004141F0FE4141F470014FF00000EA
:1007880070BD41F0FE4141F4780170BD70B54FF085
:10079800FF0C4CF4E06C1CEA11541DBF1CEA135505
:1007A80094EA0C0F95EA0C0F00F0A7F8A4EB0504E7
:1007B80081EA030E52EA03354FEA013100F08880DE
:1007C8004FEA03334FF0805545EA131343EA1263A7
:1007D8004FEA022245EA111545EA10654FEA00265C
:1007E8000EF000419D4208BF964244F1FD0404F515
:1007F800407402D25B084FEA3202B61A65EB030571
:100808005B084FEA32024FF480104FF4002CB6EB2D
:10081800020E75EB030E22BFB61A754640EA0C00AD
:100828005B084FEA3202B6EB020E75EB030E22BFED
:10083800B61A754640EA5C005B084FEA3202B6EB2E
:10084800020E75EB030E22BFB61A754640EA9C00ED
:100858005B084FEA3202B6EB020E75EB030E22BFBD
:10086800B61A754640EADC0055EA060E18D04FEA7B
:10087800051545EA16754FEA06164FEAC30343EA1B
:1008880052734FEAC2025FEA1C1CC0D111F4801FE8
:100898000BD141EA00014FF000004FF0004CB6E7E1
:1008A80011F4801F04BF01430020B4F1FD0C88BF80
:1008B800BCF5E06F3FF6AFAEB5EB030C04BFB6EB8B
:1008C800020C5FEA500C50F1000041EB045170BD7E
:1008D8000EF0004E4EEA113114EB5C04C2BFD4EBAB
:1008E8000C0541EA045170BD41F480114FF0000E2F
:1008F800013C90E645EA060E8DE60CEA135594EAAB
:100908000C0F08BF95EA0C0F3FF43BAF94EA0C0FAD
:100918000AD150EA01347FF434AF95EA0C0F7FF422
:1009280025AF104619462CE795EA0C0F06D152EA76
:1009380003353FF4FDAE1046194622E750EA41065A
:1009480018BF52EA43067FF4C5AE50EA41047FF46B
:100958000DAF52EA43057FF4EBAE12E74FF0FF3CD0
:1009680006E000BF4FF0010C02E000BF4FF0010CA1
:100978004DF804CD4FEA410C7FEA6C5C4FEA430C1A
:1009880018BF7FEA6C5C1BD001B050EA410C0CBF69
:1009980052EA430C91EA030F02BF90EA020F0020CB
:1009A800704710F1000F91EA030F58BF994208BF32
:1009B80090422CBFD8176FEAE37040F001007047EF
:1009C8004FEA410C7FEA6C5C02D150EA013C07D146
:1009D8004FEA430C7FEA6C5CD6D152EA033CD3D091
:1009E8005DF8040B704700BF8446104662468C468B
:1009F8001946634600E000BF01B5FFF7B7FF0028BE
:100A080048BF10F1000F01BD4DF808EDFFF7F4FFE6
:100A18000CBF012000205DF808FB00BF4DF808ED71
:100A2800FFF7EAFF34BF012000205DF808FB00BF94
:100A38004DF808EDFFF7E0FF94BF012000205DF8B6
:100A480008FB00BF4DF808EDFFF7CEFF94BF01206B
:100A580000205DF808FB00BF4DF808EDFFF7C4FF64
:100A680034BF012000205DF808FB00BF4FEA410CAD
:100A78007FEA6C5C02D150EA013C0AD14FEA430C90
:100A88007FEA6C5C02D152EA033C02D14FF00000CD
:100A980070474FF0010070474FEA4102B2F1E0435E
:100AA80024BFB3F5001CDCF1FE5C0DD901F0004C4D
:100AB8004FEAC0024CEA5070B2F1004F40EB83009D
:100AC80008BF20F00100704711F0804F21D113F1C9
:100AD8003872BCBF01F00040704741F480114FEA02
:100AE8005252C2F11802C2F1200C10FA0CF320FA8B
:100AF80002F018BF40F001004FEAC1234FEAD323A8
:100B080003FA0CFC40EA0C0023FA02F34FEA430311
:100B1800CCE77FEA625307D150EA01331EBF4FF09A
:100B2800FE4040F44000704701F0004040F0FE40B5
:100B380040F40000704700BF53B94AB9002908BF04
:100B480000281CBF4FF0FF314FF0FF3000F00CB809
:100B5800ADF1080C6DE904CE05F090FDDDF804E078
:100B6800DDE9022304B07047704700BF0348044B17
:100B7800834202D0034B03B118477047900000200E
:100B880090000020000000000548064B1B1AD90FF2
:100B980001EBA301491002D0034B03B1184770477A
:100BA80090000020900000200000000010B5064CC6
:100BB800237843B9FFF7DAFF044B13B10448AFF3C6
:100BC80000800123237010BD900000200000000069
:100BD800A469000808B5054B1BB105490548AFF3E2
:100BE8000080BDE80840FFF7CFBF00BF000000004D
:100BF80094000020A469000880B400AF084B0022CC
:100C08001A70074B00221A70064B00221A60064B16
:100C180000221A6000BFBD465DF8047B704700BF24
:100C2800AC000020B0000020B400002080B483B0E5
:100C380000AF786039605C4B1B687A689A4227DDA0
:100C48005A4B4FF080629A61594B4FF480729A6107
:100C5800584B1B78002B0AD1544B4FF400429A6131
:100C6800524B02229A61534B01221A703CE04F4BBF
:100C78004FF000429A614D4B4FF400329A614D4B50
:100C880000221A70484B1B680133474A13602BE057
:100C9800454B1B687A689A4226DA444B4FF48062C7
:100CA8009A61434B4FF080729A61424B1B78002B3C
:100CB8000AD13E4B4FF400429A613C4B02229A61A2
:100CC8003C4B01221A700FE0384B4FF000429A61FA
:100CD800364B4FF400329A61364B00221A70324B71
:100CE8001B68013B304A1360334B1B683A689A42D1
:100CF80027DD2F4B4FF080629A612C4B10229A61AE
:100D08002E4B1B78002B0BD1284B4FF400529A61C5
:100D1800264B4FF480429A61284B01221A703DE01D
:100D2800224B4FF000529A61204B4FF080429A615B
:100D3800224B00221A70204B1B6801331E4A136095
:100D48002CE01D4B1B683A689A4227DA184B4FF47F
:100D580080629A61154B4FF480129A61174B1B7889
:100D6800002B0BD1114B4FF400529A610F4B4FF4EB
:100D780080429A61114B01221A700FE00B4B4FF021
:100D880000529A61094B4FF080429A610B4B002246
:100D98001A70094B1B68013B074A136000BF0C37E8
:100DA800BD465DF8047B7047B00000200004024097
:100DB80000000240AC000020B4000020AD0000207C
:100DC80080B483B000AF78607B681B6843F0010291
:100DD8007B681A6000BF0C37BD465DF8047B70471E
:100DE80080B483B000AF78607B681B6823F0010291
:100DF8007B681A6000BF0C37BD465DF8047B7047FE
:100E080080B483B000AF78607B681B6803F001038F
:100E1800012B0CBF01230023DBB218460C37BD465B
:100E28005DF8047B704780B483B000AF78607B685E
:100E38005B6903F08003802B0CBF01230023DBB226
:100E480018460C37BD465DF8047B704780B483B004
:100E580000AF78607B685B6903F00403042B0CBF68
:100E680001230023DBB218460C37BD465DF8047B2E
:100E7800704780B483B000AF78607B685B6903F02B
:100E88004003402B0CBF01230023DBB218460C376C
:100E9800BD465DF8047B704780B483B000AF7860CE
:100EA8007B685B6903F00103012B0CBF012300235E
:100EB800DBB218460C37BD465DF8047B704780B43A
:100EC80083B000AF78607B685B6903F00203022B94
:100ED8000CBF01230023DBB218460C37BD465DF872
:100EE800047B704780B483B000AF78607B685B692F
:100EF80003F48063B3F5806F0CBF01230023DBB2DA
:100F080018460C37BD465DF8047B704780B483B043
:100F180000AF78607B685B6903F01003102B0CBF8F
:100F280001230023DBB218460C37BD465DF8047B6D
:100F3800704780B483B000AF78607B685B6903F466
:100F48008073B3F5807F0CBF01230023DBB2184602
:100F58000C37BD465DF8047B704780B483B000AFA2
:100F680078607B685B6903F40073B3F5007F0CBF9E
:100F780001230023DBB218460C37BD465DF8047B1D
:100F8800704780B485B000AF78607B685B69FB60B0
:100F9800FB687B689B69FB60FB6800BF1437BD4634
:100FA8005DF8047B704780B483B000AF78607B68DD
:100FB8005B6923F480627B685A6100BF0C37BD46C9
:100FC8005DF8047B704780B485B000AF78607B68BB
:100FD8005B69FB60FB687B681B6843F001027B6808
:100FE8001A6000BF1437BD465DF8047B704780B4B3
:100FF80083B000AF78607B685B6923F480727B689C
:101008005A6100BF0C37BD465DF8047B704780B459
:1010180083B000AF78607B685B6923F400727B68FB
:101028005A6100BF0C37BD465DF8047B704780B439
:1010380083B000AF78607B681B6843F400427B682C
:101048001A6000BF0C37BD465DF8047B704780B45A
:1010580083B000AF78607B681B6823F400427B682C
:101068001A6000BF0C37BD465DF8047B704780B43A
:1010780083B000AF786039607B681B6823F48062B6
:101088003B681A437B681A6000BF0C37BD465DF8A1
:10109800047B704780B483B000AF78607B681B68BE
:1010A80043F480727B681A6000BF0C37BD465DF858
:1010B800047B704780B483B000AF78607B681B689E
:1010C80043F400727B681A6000BF0C37BD465DF8B8
:1010D800047B704780B483B000AF78607B681B687E
:1010E80043F400627B681A6000BF0C37BD465DF8A8
:1010F800047B704780B483B000AF78607B681B685E
:1011080023F400627B681A6000BF0C37BD465DF8A7
:10111800047B704780B483B000AF78607B681B693C
:10112800DBB218460C37BD465DF8047B704780B4C7
:1011380083B000AF78600B46FB707B681B6923F0B7
:10114800FF02FB781A437B681A6100BF0C37BD4663
:101158005DF8047B704780B584B000AF78607B6829
:10116800002B27D07B689B691846FFF749FE03468A
:101178007B817B689B691846FFF732FE7B689B6919
:101188001846FFF754FF0023FB6003E000BFFB682D
:101198000133FB60FB68632BF8DD7B689B691846AD
:1011A800FFF755FF7B89002B04D07B689B691846A5
:1011B800FFF706FE00BF1037BD4680BD80B584B07E
:1011C80000AF786039607B68002B1FD03B68002B2C
:1011D8001CD07B68BB60BB689B69254A934202D1DF
:1011E800244BFB6014E0BB689B69234A934202D1FD
:1011F800224BFB600CE0BB689B69214A934202D1F9
:10120800204BFB6004E00023FB6001E00023FB604F
:10121800FB68002B26D0BB689A69FB689A61BB689B
:10122800DA68FB68DA60BB681A69FB681A61FB68F0
:1012380010221A60FB6800225A60FB6820229A601C
:10124800FB6800225A613B68FA681A60FB689B6970
:101258004FF480611846FFF70AFFFB689B69184640
:10126800FFF7AEFD3B6818461037BD4680BD00BF8E
:1012780000540040B800002000580040D40000206E
:10128800005C0040F000002080B584B000AF7860BA
:101298007B68002B36D07B681B68FB607B689B698A
:1012A8001846FFF71FFE0346012B08D17B689B6990
:1012B8001846FFF778FEFB6843F00403FB607B6881
:1012C8009B691846FFF749FE0346012B08D17B6846
:1012D8009B691846FFF79BFEFB6843F00203FB601F
:1012E8007B689B691846FFF724FE0346012B0CD147
:1012F8007B689B691846FFF77AFEFB6843F0080392
:10130800FB6002E04FF48073FB60FB6818461037FF
:10131800BD4680BD80B586B000AFF860B9607A6020
:10132800FB68002B28D0FB689A69BB681046984771
:1013380078617B69002B21D17B68002B1ED004F0DB
:10134800A9F8386108E0FB689A69BB6810469847B5
:1013580078617B69002B08D104F09CF802463B6950
:10136800D31A7A689A42EED200E000BF7B69002B5C
:1013780004D102237B6101E000237B617B6918466D
:101388001837BD4680BD000080B588B000AFF86052
:101398007A603B600B467B811023FB61FB68002B66
:1013A80000F0B280FB681B68002B00F0AD80FB6882
:1013B8001B681B68102B40F0A780FB681B687B61CB
:1013C8007B6901221A607B6920229A600023FB61F5
:1013D8007B699B691846FFF75DFE3A6B534978694C
:1013E800FFF798FF0346012B08D07869FFF74CFFF9
:1013F800034643F40073FA691343FB61FB69002B4E
:101408005CD17B699A697B89DBB25B00DBB21946E8
:101418001046FFF78CFE3A6B45497869FFF77AFF6B
:101428000346012B05D17B699B691846FFF7A9FD87
:1014380008E07869FFF728FF034643F40073FA6968
:101448001343FB610023BB611DE03A6B394978699E
:10145800FFF760FF0346012B09D17B6998697A6819
:10146800BB6913441B781946FFF761FE08E07869E9
:10147800FFF70AFF034643F40073FA691343FB615D
:10148800BB690133BB61FB69002B03D1BA693B68B7
:101498009A42DAD3FB69002B10D13A6B2549786957
:1014A800FFF738FF0346012B08D07869FFF7ECFEF9
:1014B800034643F40073FA691343FB61FB69002B8D
:1014C80003D197F82830012B11D07B699B69184606
:1014D800FFF7F0FD7B699B691846FFF717FD034688
:1014E800012B04D17B699B691846FFF76CFDFB69EA
:1014F800002B02D07869FFF72EFE7B69FA695A60E3
:101508007B6910221A600BE0FB68002B06D0FB6891
:101518001B68002B02D04FF4807300E00123FB61AD
:10152800FB6918462037BD4680BD00BFA10E0008E4
:10153800C70E00082F0E000890B589B000AFF860FC
:101548007A603B600B467B81FB68002B00F076815C
:10155800FB681B68002B00F07181FB681B681B6827
:10156800102B40F06B81FB681B687B617B69012253
:101578001A607B6920229A600023FB617B699B6962
:101588004FF480611846FFF772FD7B699B69184626
:10159800FFF780FDBA6BA5497869FFF7BBFE0346E4
:1015A800012B08D07869FFF76FFE034643F40073F8
:1015B800FA691343FB61FB69002B40F009817B69E1
:1015C8009A697B895BB25B005BB243F001035BB253
:1015D800DBB219461046FFF7AAFDBA6B9449786941
:1015E800FFF798FE0346012B40F0E9803B68002B8B
:1015F80000F0DF803B68012B06D17B699B690021E5
:101608001846FFF734FD0DE03B68022B0AD17B69D1
:101618009B6900211846FFF72AFD7B699B691846DC
:10162800FFF758FD7B699B691846FFF7AAFC3B68E2
:10163800BB6120E0BA6B7F497869FFF76BFE034610
:10164800012B0CD17B6999693A68BB69D31A7A680E
:10165800D4180846FFF75EFD0346237008E0786952
:10166800FFF712FE034643F40073FA691343FB6164
:10167800BB69013BBB61FB69002B02D1BB69022B33
:10168800D8D8FB69002B40F0A380BB69022B65D139
:101698007B699B6900211846FFF7E9FC7B699B6918
:1016A8001846FFF717FDBA6B63497869FFF732FEF2
:1016B8000346012B43D197F83030012B04D07B69C6
:1016C8009B691846FFF7F6FCBA6B5A497869FFF729
:1016D80021FE0346012B28D17B6999693B68023BAF
:1016E8007A68D4180846FFF715FD03462370BA6BCD
:1016F80050497869FFF70EFE0346012B0BD17B6931
:1017080099693B68013B7A68D4180846FFF702FDDF
:10171800034623701CE07869FFF7B6FD034643F4DF
:101728000073FA691343FB6112E07869FFF7ACFDB7
:10173800034643F40073FA691343FB6108E07869D0
:10174800FFF7A2FD034643F40073FA691343FB61F4
:101758007B699B691846FFF7CDFC39E0BB69012B13
:1017680036D197F83030012B04D07B699B69184635
:10177800FFF7A0FCBA6B2F497869FFF7CBFD03464A
:10178800012B0CD17B6999693A68BB69D31A7A68CD
:10179800D4180846FFF7BEFC0346237018E07869A2
:1017A800FFF772FD034643F40073FA691343FB61C4
:1017B8000EE07B699B691846FFF77CFC08E07869B6
:1017C800FFF762FD034643F40073FA691343FB61B4
:1017D800FB69002B11D07B699B691846FFF76AFCEF
:1017E8007B699B691846FFF791FB0346012B04D1DF
:1017F8007B699B691846FFF7E6FB7B699B694FF499
:1018080080611846FFF733FC7B699B691846FFF730
:1018180071FCFB69002B02D07869FFF79CFC7B699F
:10182800FA695A607B6910221A6013E0A10E000859
:10183800C70E00087B0E0008550E0008FB68002B39
:1018480006D0FB681B68002B02D04FF4807300E0C1
:101858000123FB61FB6918462437BD4690BD00BFD4
:1018680080B400AF00BFBD465DF8047B7047000040
:1018780090B591B000AFF860B9607A603B60022320
:10188800BB6307F138031946F86800F055F90346B9
:10189800FB8707F138031946F86800F035F9034665
:1018A80087F83D303B6DFA8F1A80FB8F42F2200299
:1018B80093425DD197F83D30242B59D107F1380375
:1018C8001946F86800F0B2F9F0EE407AC7ED057AEB
:1018D80007F138031946F86800F0A8F9F0EE407AE5
:1018E800C7ED067A07F138031946F86800F09EF943
:1018F800F0EE407AC7ED077A07F138031946F86821
:1019080000F094F9F0EE407AC7ED087A07F1380351
:101918001946F86800F08AF9F0EE407AC7ED097ABE
:1019280007F138031946F86800F080F9F0EE407ABC
:10193800C7ED0A7A07F138031946F86800F076F916
:10194800F0EE407AC7ED0B7A07F138031946F868CC
:1019580000F06CF9F0EE407AC7ED0C7A07F1380325
:101968001946F86800F062F9F0EE407AC7ED0D7A92
:10197800FB691846FEF788FD61A3D3E90023FEF74B
:10198800DBFD02460B4610461946FFF785F802466E
:10199800BB681A60BB6A1846FEF776FD58A3D3E900
:1019A8000023FEF7C9FD02460B4610461946BB68E0
:1019B8001C1DFFF771F8034623607B6B1846FEF782
:1019C80063FD4FA3D3E90023FEF7B6FD02460B469D
:1019D80010461946BB6803F10804FFF75DF8034693
:1019E800236007F138031946F86800F0A5F80346A4
:1019F800FB8707F138031946F86800F085F80346B5
:101A080087F83D30FB8F42F21002934234D197F8A9
:101A18003D30102B30D107F138031946F86800F033
:101A280005F9F0EE407A7B68C3ED007A7B681C1DEF
:101A380007F138031946F86800F0F8F8F0EE407A34
:101A4800C4ED007A7B6803F1080407F138031946EE
:101A5800F86800F0EBF8F0EE407AC4ED007A7B68A5
:101A680003F10C0407F138031946F86800F0DEF8B2
:101A7800F0EE407AC4ED007A07F138031946F868A9
:101A880000F05AF80346FB8707F138031946F8684F
:101A980000F03AF8034687F83D30FB8F48F2200201
:101AA800934227D197F83D300C2B23D107F1380307
:101AB8001946F86800F0BAF8F0EE407A3B68C3EDD2
:101AC800007A3B681C1D07F138031946F86800F0D6
:101AD800ADF8F0EE407AC4ED007A3B6803F10804F3
:101AE80007F138031946F86800F0A0F8F0EE407ADC
:101AF800C4ED007A00BF4437BD4690BDAFF3008007
:101B08001F85EB51B89E23C080B485B000AF7860C4
:101B180039603B681B681A467B6813441B78FB7363
:101B28003B681B685A1C3B681A60FB7B18461437D5
:101B3800BD465DF8047B704780B485B000AF78601F
:101B480039600023FB813B681B681A467B68134495
:101B58001B781BB21B021AB2B7F90E3013431BB223
:101B6800FB813B681B685A1C3B681A603B681B6812
:101B78001A467B6813441B781A46FB891343FB817A
:101B88003B681B685A1C3B681A60FB891846143767
:101B9800BD465DF8047B704780B485B000AF7860BF
:101BA80039600023FB603B681B681A467B68134456
:101BB8001B781B06FA681343FB603B681B685A1CBA
:101BC8003B681A603B681B681A467B6813441B789D
:101BD8001B04FA681343FB603B681B685A1C3B688C
:101BE8001A603B681B681A467B6813441B781B0203
:101BF800FA681343FB603B681B685A1C3B681A6011
:101C08003B681B681A467B6813441B781A46FB68B6
:101C18001343FB603B681B685A1C3B681A60FB68EF
:101C280018461437BD465DF8047B704780B584B00C
:101C380000AF7860396039687868FFF7ADFF034610
:101C4800FB60FB68BB60BB6807EE903AB0EE670AC2
:101C58001037BD4680BD80B485B000AF78607B6822
:101C68001B6803F06003FB60FB68002B04D17B68F2
:101C78001B6803F01003FB60FB6818461437BD4669
:101C88005DF8047B704780B483B000AF78607B68F0
:101C98005B6A18460C37BD465DF8047B704780B414
:101CA80083B000AF78607B681B6B18460C37BD4665
:101CB8005DF8047B704780B483B000AF78607B68C0
:101CC8005B6C43F400427B685A6400BF0C37BD4626
:101CD8005DF8047B704780B483B000AF78607B68A0
:101CE800DB6843F001027B68DA6000BF0C37BD4651
:101CF8005DF8047B704780B483B000AF78607B6880
:101D0800DB6823F001027B68DA6000BF0C37BD4650
:101D18005DF8047B704780B483B000AF78607B685F
:101D2800DB6803F00103012B01D1012300E000234C
:101D380018460C37BD465DF8047B704780B483B005
:101D480000AF78607B68DB6843F002027B68DA608A
:101D580000BF0C37BD465DF8047B704780B483B084
:101D680000AF78607B68DB6823F002027B68DA608A
:101D780000BF0C37BD465DF8047B704780B483B064
:101D880000AF78607B68DB6803F00203022B01D1A7
:101D9800012300E0002318460C37BD465DF8047B9C
:101DA800704780B483B000AF78607B68DB6843F02D
:101DB80004027B68DA6000BF0C37BD465DF8047B1F
:101DC800704780B483B000AF78607B68DB6823F02D
:101DD80004027B68DA6000BF0C37BD465DF8047BFF
:101DE800704780B483B000AF78607B68DB6803F02D
:101DF8000403042B01D1012300E0002318460C370B
:101E0800BD465DF8047B704780B483B000AF78604E
:101E18007B68DB6843F008027B68DA6000BF0C3738
:101E2800BD465DF8047B704780B483B000AF78602E
:101E38007B68DB6823F008027B68DA6000BF0C3738
:101E4800BD465DF8047B704780B483B000AF78600E
:101E58007B68DB6803F00803082B01D1012300E04D
:101E6800002318460C37BD465DF8047B704780B4E4
:101E780083B000AF78607B68DB6843F010027B6852
:101E8800DA6000BF0C37BD465DF8047B704780B44C
:101E980083B000AF78607B68DB6823F010027B6852
:101EA800DA6000BF0C37BD465DF8047B704780B42C
:101EB80083B000AF78607B68DB6803F01003102BF9
:101EC80001D1012300E0002318460C37BD465DF818
:101ED800047B704780B483B000AF78607B68DB68B0
:101EE80043F020027B68DA6000BF0C37BD465DF81E
:101EF800047B704780B483B000AF78607B68DB6890
:101F080023F020027B68DA6000BF0C37BD465DF81D
:101F1800047B704780B483B000AF78607B68DB686F
:101F280003F02003202B01D1012300E000231846F1
:101F38000C37BD465DF8047B704780B483B000AFB2
:101F480078607B68DB6843F040027B68DA6000BF3A
:101F58000C37BD465DF8047B704780B483B000AF92
:101F680078607B68DB6823F040027B68DA6000BF3A
:101F78000C37BD465DF8047B704780B483B000AF72
:101F880078607B68DB6803F04003402B01D10123B4
:101F980000E0002318460C37BD465DF8047B704707
:101FA80080B483B000AF78607B68DB6843F0800260
:101FB8007B68DA6000BF0C37BD465DF8047B70476C
:101FC80080B483B000AF78607B68DB6823F0800260
:101FD8007B68DA6000BF0C37BD465DF8047B70474C
:101FE80080B483B000AF78607B68DB6803F080035F
:101FF800802B01D1012300E0002318460C37BD4691
:102008005DF8047B704780B582B000AF78600B46FE
:102018007B807B8803F00103002B0CD07B681B6856
:102028001846FFF7AAFF0346012B04D07B681B68FC
:102038001846FFF782FF7B8803F00203002B0CD0C1
:102048007B681B681846FFF799FE0346012B04D0EE
:102058007B681B681846FFF771FE7B8803F0040352
:10206800002B0CD07B681B681846FFF7BAFE0346A6
:10207800012B04D07B681B681846FFF792FE7B880B
:1020880003F00803002B0CD07B681B681846FFF789
:10209800DBFE0346012B04D07B681B681846FFF75C
:1020A800B3FE7B8803F01003002B0CD07B681B6801
:1020B8001846FFF7FCFE0346012B04D07B681B681B
:1020C8001846FFF7D4FE7B8803F02003002B0CD0C2
:1020D8007B681B681846FFF71EFE0346012B04D0D9
:1020E8007B681B681846FFF7F6FD7B8803F0400302
:1020F800002B0CD07B681B681846FFF771FF03465E
:10210800012B04D07B681B681846FFF749FF7B88C2
:1021180003F08003002B0CD07B681B681846FFF780
:10212800F9FE0346012B04D07B681B681846FFF7AD
:10213800D1FE00BF0837BD4680BD80B582B000AF74
:1021480078600B467B807B8803F00103002B0CD062
:102158007B681B681846FFF710FF0346012B04D164
:102168007B681B681846FFF7F8FE7B8803F00203BC
:10217800002B0CD07B681B681846FFF7FFFD034651
:10218800012B04D17B681B681846FFF7E7FD7B88A5
:1021980003F00403002B0CD07B681B681846FFF77C
:1021A80020FE0346012B04D17B681B681846FFF705
:1021B80008FE7B8803F00803002B0CD07B681B68A3
:1021C8001846FFF741FE0346012B04D17B681B68C4
:1021D8001846FFF729FE7B8803F01003002B0CD06C
:1021E8007B681B681846FFF762FE0346012B04D183
:1021F8007B681B681846FFF74AFE7B8803F02003BC
:10220800002B0CD07B681B681846FFF784FD03463B
:10221800012B04D07B681B681846FFF76CFD7B8890
:1022280003F04003002B0CD07B681B681846FFF7AF
:10223800D7FE0346012B04D17B681B681846FFF7BD
:10224800BFFE7B8803F08003002B0CD07B681B68E3
:102258001846FFF75FFE0346012B04D17B681B6815
:102268001846FFF747FE00BF0837BD4680BD00008F
:1022780080B584B000AF78600023FB607B681B6882
:10228800B3F1804F01D1204BFB607B681A68FB6873
:102298001A60FB681B681846FFF7DDFCB860BB686E
:1022A800002B06D0BB68102B03D0FB6801221A71E3
:1022B80002E0FB6800221A71FB681B68134A93420C
:1022C80004D0FB681B68124A934204D1FB681B6860
:1022D8001846FFF7F0FCFB681B680C4A934204D0D1
:1022E800FB681B680A4A934208D17B681B6818463A
:1022F800FFF7D5FC0346DAB2FB685A71FB6818464B
:102308001037BD4680BD00BF0C0100200000014011
:102318000004014080B582B000AF78607B681B681C
:102328001846FFF7B0FC034618460837BD4680BD7F
:1023380080B483B000AF03463960FB7197F907306A
:10234800002B0ADB3B68DAB20C4997F90730120117
:10235800D2B20B4483F800230AE03B68DAB208499A
:10236800FB7903F00F03043B1201D2B20B441A7637
:1023780000BF0C37BD465DF8047B704700E100E004
:1023880000ED00E080B584B000AFF860B9607A6015
:10239800FB68DBB20F3BDBB25BB279681846FFF72C
:1023A800C7FF00BF1037BD4680BD000080B500AF35
:1023B8000F4B1B785A1CD1B20D4A1170002B09D053
:1023C8000C4B01221A600A4B1B78013BDAB2084B0E
:1023D8001A700BE062B600BF00F086FB72B600BF51
:1023E800034B1B78013BDAB2014B1A7080BD00BF6A
:1023F8009C0100209801002080B584B000AF78606F
:1024080039602F4BFB602F4BBB602F4B00221A709B
:102418002E4B00221A7001DF03F006F801F0D8F8FD
:1024280000F060FE01F0ACFA01F010FC01F0B4FF1E
:1024380001F0DAFD01F096FC254B1B6800221A60BA
:1024480000F0FEFD00F04CFD72B600BF97ED030AE8
:1024580000F0D0FE1E4B1B681B68002B0CBF01232D
:102468000023DBB21A46194B1A7062B600BF62B677
:1024780000BF15E0164B1B681B68002B14BF012317
:102488000023DBB21A46104B1A700F4B1B78DBB2D5
:10249800002B05D00F4B1B680E4A23F00103136075
:1024A8000A4B1B78DBB2002BE4D100F085FD00F06D
:1024B80011FE72B600BF002318461037BD4680BD16
:1024C8000AD7233C000034439D0100209E010020D0
:1024D800C069000810E000E080B586B000AF402376
:1024E800FB604FF000024FF00003C7E90423FB68CC
:1024F800202B0BD100F020F810EE103A1846FDF70B
:10250800C3FF02460B46C7E9042307E0094B7B607B
:1025180000233B60D7E90023C7E90423D7E9042354
:1025280043EC172BB0EE470AF0EE670A1837BD46A2
:1025380080BD00BF0000F07F80B483B000AF4FF0D3
:10254800FF437B607B6807EE903AB0EE670A0C3772
:10255800BD465DF8047B704780B586B000AF402368
:10256800FB604FF000024FF00003C7E90423FB684B
:10257800202B0BD100F020F810EE103A1846FDF78A
:1025880083FF02460B46C7E9042307E0094B7B603B
:1025980000233B60D7E90023C7E90423D7E90423D4
:1025A80043EC172BB0EE470AF0EE670A1837BD4622
:1025B80080BD00BF0000F0FF80B483B000AF064BC1
:1025C8007B607B6807EE903AB0EE670A0C37BD4631
:1025D8005DF8047B704700BF000080FF80B586B0BF
:1025E80000AF4023FB604FF000024FF00003C7E943
:1025F8000423FB68202B0BD100F020F810EE103AD2
:102608001846FDF741FF02460B46C7E9042307E0D9
:10261800094B7B6000233B60D7E90023C7E904230B
:10262800D7E9042343EC172BB0EE470AF0EE670A0C
:102638001837BD4680BD00BF0000F8FF80B483B0E6
:1026480000AF4FF000037B60054B7B607B6807EEB3
:10265800903AB0EE670A0C37BD465DF8047B7047C8
:102668000000C0FF80B582B000AF7860FFF7B6FF0A
:10267800B0EE407AF0EE607A164B83ED007BFFF700
:10268800DDFFF0EE407A144BC3ED007AFFF724FF2C
:10269800B0EE407AF0EE607A104B83ED007BFFF7E6
:1026A8004BFFF0EE407A0E4BC3ED007AFFF754FF74
:1026B800B0EE407AF0EE607A0A4B83ED007BFFF7CC
:1026C8007BFFF0EE407A084BC3ED007A00BF083775
:1026D800BD4680BDB0010020C0010020A00100203F
:1026E800B8010020A8010020BC01002080B483B0FC
:1026F80000AF87ED010A0E4BD3ED007A97ED017A12
:10270800B4EE677AF1EE10FA09D00A4BD3ED007AED
:1027180097ED017AB4EE677AF1EE10FA01D1012350
:1027280000E0002318460C37BD465DF8047B70476F
:10273800B8010020BC01002080B485B000AF87ED4F
:10274800010A7B68FB60FB6803F0FF43B3F1FF4FAE
:1027580006D1FB68C3F31603002B01D0012300E068
:102768000023DBB218461437BD465DF8047B70477A
:1027780080B483B000AF0346FB7197F90730002B94
:102788000BDBFB7903F01F02074997F907305B0958
:10279800012000FA02F241F8232000BF0C37BD46A1
:1027A8005DF8047B704700BF00E100E080B483B0AF
:1027B80000AF0346FB7197F90730002B12DBFB795A
:1027C80003F01F020A4997F907305B09012000FA54
:1027D80002F2203341F82320BFF34F8F00BFBFF32D
:1027E8006F8F00BF00BF0C37BD465DF8047B704794
:1027F80000E100E080B483B000AF78607B681B68BC
:1028080043F001027B681A6000BF0C37BD465DF8D3
:10281800047B704780B483B000AF78607B681B6826
:1028280023F001027B681A6000BF0C37BD465DF8D3
:10283800047B704780B483B000AF786039607B68F0
:102848001B6823F004023B681A437B681A6000BFC8
:102858000C37BD465DF8047B704780B483B000AF89
:1028680078607B681B6803F0040318460C37BD4684
:102878005DF8047B704780B483B000AF786039603E
:102888007B683A681A6300BF0C37BD465DF8047B65
:10289800704780B483B000AF78607B686FF0010246
:1028A8001A6100BF0C37BD465DF8047B704780B4E1
:1028B80083B000AF78607B681B6903F00103012BCC
:1028C80001D1012300E0002318460C37BD465DF80E
:1028D800047B704780B483B000AF78607B68DB68A6
:1028E80003F00103012B01D1012300E00023184666
:1028F8000C37BD465DF8047B704780B483B000AFE9
:1029080078607B685B6943F001027B685A6100BFAD
:102918000C37BD465DF8047B704780B485B000AFC6
:1029280078607B681B689B6803F00703FB60FB68A3
:10293800062B0CBF01230023DBB218461437BD4613
:102948005DF8047B7047000080B584B000AF786004
:102958000B46FB707B681B681846FFF77EFFF86024
:10296800FB78002B0FD07B681B68234A934204D066
:102978007B681B68214A934205D17B681B6800214C
:102988001846FFF778FFFB68042B11D07B681B689B
:1029980004211846FFF74EFF7B681B681846FFF7AF
:1029A800ACFF7B681B68F9681846FFF743FF04E033
:1029B8007B681B681846FFF7A0FF7B681B681846F2
:1029C800FFF718FFFB78002B11D07B681B680A4AB9
:1029D800934204D07B681B68084A934207D17B68FE
:1029E8001A687B685B7919461046FFF744FF00BFF9
:1029F8001037BD4680BD00BF000001400004014003
:102A080080B582B000AF78607B681B681846FFF716
:102A180001FF00BF0837BD4680BD000080B58AB001
:102A280000AF78607B6800221A727B6801225A60C6
:102A3800104B3B6200237B610023BB617B68002253
:102A48001A617B6800225A617B6800229A617B6860
:102A580010337B6207F10803796A1846FEF7AEFB6C
:102A680002467B68DA607B6801221A7200BF283749
:102A7800BD4680BD0054004080B5A6B000AF786068
:102A88007B6801225A604FF08043BB6000233B7390
:102A980000237B7307F108031846FFF7E9FB02469A
:102AA8007B68DA607B68DB6820211846FFF7ABFAA1
:102AB8007B68DB681846FFF730FF034687F89730D6
:102AC80097F89730002B05D17B68DB680021184602
:102AD800FFF73AFF7B6801221A7200BF9837BD469C
:102AE80080BD00000000000080B5A2B004AF042340
:102AF800FB70B94B986AFA1C0123029301230193D6
:102B08000123009301236B21FEF73EFC38673B6FDE
:102B1800002B0DD1B04B986A3A1D01230293002374
:102B280001930023009304236B21FEF705FD01E0C8
:102B38000023BB71BB79002B5CD00623FB70A64B2E
:102B4800D868FA1C012302930123019301230093FF
:102B580001236B21FEF718FC38673B6F002B0ED161
:102B68009D4BD86807F108020123029300230193C3
:102B7800002300934C236B21FEF7DEFC06E007F1EF
:102B880008034C220021184603F0D6FE934B4FF061
:102B980000021A60914B4FF000025A608F4B4FF0C1
:102BA80000029A608D4B4FF00002DA608B4B4FF0B9
:102BB80000021A61894B4FF000025A61874B4FF0AF
:102BC80000029A614FF00003BB654FF00003FB65FC
:102BD8004FF000033B660023A7F8563007F1580270
:102BE80007F1080007F15603009313467C4A7B4916
:102BF800FEF73EFE794B93ED017A7A4BD3ED057AD9
:102C080067EE277AC7ED1B7A744B93ED037A754B01
:102C1800D3ED087A27EE277A704BD3ED046A714B0F
:102C2800D3ED097A66EEA77A37EE677A6D4BD3ED66
:102C3800066A6A4BD3ED057A66EEA77A37EE277AED
:102C4800684BD3ED076A654BD3ED067A66EEA77A33
:102C580037EE277A634BD3ED0A7A27EE277A5F4B54
:102C6800D3ED027A67EE277AC7ED1A7A5B4B93EDBC
:102C7800007A5A4BD3ED007A27EE277A574BD3EDDB
:102C8800016A564BD3ED017A66EEA77A37EE277ABA
:102C9800524BD3ED026A514BD3ED027A66EEA77A16
:102CA80037EE277A4F4BD3ED0B7A67EE277AC7EDCD
:102CB800197A4A4B93ED037A4A4BD3ED077A27EEFC
:102CC800277A484BD3ED066A444BD3ED047A66EE77
:102CD800A77A37EE277A414BD3ED056A414BD3EDFE
:102CE800097A66EEA77A37EE277A3E4BD3ED086A63
:102CF8003A4BD3ED067A66EEA77A37EE677A394B08
:102D0800D3ED0A7A27EE277A344BD3ED027A27EEF1
:102D1800277A324BD3ED006A324BD3ED057A66EE53
:102D2800A77A37EE677AB7EE006AD7ED196AC6EE6A
:102D3800267A27EE277A2B4BD3ED0C7A67EE277A83
:102D480017EE900AFDF7A0FB02460B4643EC102B4A
:102D580003F08AFA53EC102B10461946FDF79CFE37
:102D680003467B6797ED1D0AFFF7E6FC0346002B39
:102D780006D197ED1D0AFFF7B9FC0346002B03D0D7
:102D88004FF000037B6712E0786FFDF77DFB02468A
:102D98000B469FED0F1B43EC102B03F02DFA53EC61
:102DA800102B10461946FDF777FE03467B67D7EDD3
:102DB8001D7AF5EEC07AF1EE10FA15D5D7ED1D7A29
:102DC800F1EE677AFCEEE77A17EE903A5B4211E093
:102DD800000000000000F041E8010020C4010020CC
:102DE800D001002000000020D7ED1D7AFCEEE77A24
:102DF80017EE903A384A1366F7EE006AD7ED197A5B
:102E080086EEA77AD7ED1B6AD7ED1A7A76EEE77ABF
:102E180027EE277A314BD3ED0D7A67EE277A17EE36
:102E2800900AFDF731FB02460B4643EC102B03F0EA
:102E38001BFA53EC102B10461946FDF72DFE0346DE
:102E48007B6797ED1D0AFFF777FC0346002B06D139
:102E580097ED1D0AFFF74AFC0346002B03D04FF0FD
:102E680000037B6712E0786FFDF70EFB02460B4606
:102E78009FED171B43EC102B03F0BEF953EC102BFE
:102E880010461946FDF708FE03467B67D7ED1D7A05
:102E9800F5EEC07AF1EE10FA09D5D7ED1D7AF1EE0C
:102EA800677AFCEEE77A17EE903A5B4205E0D7EDD9
:102EB8001D7AFCEEE77A17EE903A074A5366064BFE
:102EC800DB6D1846FFF726FA00BF7837BD4680BD90
:102ED800000000000000F041E80100200000002090
:102EE80080B500AF0820FFF7BDFB2E4B1B682E4AAC
:102EF80013662C4B5B682C4A53662B4B00225A6096
:102F0800294B00221A702848FFF788FD264B00221B
:102F180083F83820244B0122DA63FEF7A1FC224B08
:102F2800012283F840201F4B9B68204A13601D4BE9
:102F38009B681E4A53601B4B9B681C4A9360194B45
:102F4800DB681A4AD360174BDB68184A1361154BC4
:102F5800DB68164A5361134BDB68144A9361124BC2
:102F6800002283F84420104B01229A64FDF744FEA6
:102F78000D4B012283F84C200B4B00221A620A4B9E
:102F880000221A770A48FFF749FD074B00225A65C5
:102F9800054B002283F850200648FFF76DFD00BF5F
:102FA80080BD00BF00000020E8010020C40100200F
:102FB800040200203802002080B500AF1F4B1B7FA1
:102FC800002B02D11D4B01221A771C4B1B78002BBA
:102FD80002D11A4B01221A70184B93F83830002B83
:102FE80003D1164B012283F83820144B93F8443050
:102FF800002B03D1114B012283F844200F4B93F887
:103008005030002B17D10D4B012283F850200B4B69
:103018005B6D012B0FD1094B93F85830002B0AD068
:10302800064BDB6D1846FFF7EBFC044BDB6D2021EC
:103038001846FFF782F800BF80BD00BFE8010020F6
:1030480080B500AF022204492B20FFF79BF91C2012
:10305800FFF78EFB00BF80BD6530000880B500AF6C
:103068004FF08040FFF736FC0346002B08D04FF0A6
:103078008040FFF71CFC0346002B01D0012300E031
:103088000023002B18D04FF08040FFF702FC0E4BB6
:103098001B78DBB2012B0FD10C4B5B6E0C4AD36152
:1030A8000A4B1B6E0A4A1362094BDB69084A126A0B
:1030B80011461846FDF7BAFDBFF36F8F00BFBFF387
:1030C8004F8F00BF00BF80BD9E010020E801002097
:1030D800C401002080B500AF1C20FFF767FB00BFCC
:1030E80080BD000080B400AF00BFBD465DF8047B22
:1030F800704700BF80B483B000AF03463960FB71EE
:1031080097F90730002B0ADB3B68DAB20C4997F9CC
:1031180007301201D2B20B4483F800230AE03B685F
:10312800DAB20849FB7903F00F03043B1201D2B26B
:103138000B441A7600BF0C37BD465DF8047B704718
:1031480000E100E000ED00E080B582B000AF7860FB
:103158007B68013BB3F1807F01D301230FE00A4A6A
:103168007B68013B53600F214FF0FF30FFF7C2FF30
:10317800054B00229A60044B07221A600023184668
:103188000837BD4680BD00BF10E000E080B500AF45
:10319800BFF34F8F00BFBFF36F8F00BF0B4B1A6891
:1031A8000B4B1B689A4202D3084B00221A60074B4C
:1031B8001B685A1C05490A60002B05D172B600BF6E
:1031C800FFF7F4F862B600BF00BF80BD54020020CC
:1031D8005802002080B400AF054B5B68044A43F0F6
:1031E8008053536000BFBD465DF8047B704700BF45
:1031F80000ED00E080B584B000AF87ED010A254BF3
:103208001B6807EE903AB8EE677AD7ED017A67EE59
:10321800277AFCEEE77A17EE903AFB60FB68B3F189
:10322800807F18D3FB6807EE903AB8EE677ADFED37
:103238001A6AC7EE267AFCEEE77A17EE903A01335F
:10324800164A1360154B1B68FA68B2FBF3F318466D
:10325800FFF77AFF05E0114B00221A60F868FFF7C4
:1032680073FF0F4B00221A6003214FF0FF30FFF766
:1032780041FF0C4A0C4B1A600F216FF00400FFF756
:1032880039FF0F216FF00100FFF734FF00BF10373F
:10329800BD4680BD3C000020FFFF7F4B5802002048
:1032A80054020020953100085C020020EFF30080F2
:1032B80001B5EFF3118003B41EF0100F08BFB0EE94
:1032C800400A0A48006803B488B004A006904FF08A
:1032D800807007906FF006008646704703BC8047F1
:1032E800BFF36F8F00DFFEE700BF00005C02002025
:1032F8001EF0100F08BFB0EE400A1EF0040F0CBFFE
:10330800EFF30880EFF30980816911F8020C10B11E
:1033180001280DD00BE01EF0100F0CBF1AB008B03A
:1033280003BC80F3118803BC80F300880847FEE7DC
:103338004EF61451CEF200010A6842F001020A600A
:103348007047F4E700BF00BF80B400AF054B1B68AF
:10335800044A43F00103136000BFBD465DF8047BD7
:10336800704700BF0038024080B400AF064B1B68AE
:1033780003F00203022B0CBF01230023DBB2184623
:10338800BD465DF8047B70470038024080B483B0C6
:1033980000AF7860074B1B6823F0F8027B68DB00FE
:1033A800044913430B6000BF0C37BD465DF8047B2E
:1033B800704700BF0038024080B483B000AF786027
:1033C800064B9B6823F0030204497B6813438B6018
:1033D80000BF0C37BD465DF8047B704700380240DB
:1033E80080B400AF044B9B6803F00C031846BD463D
:1033F8005DF8047B704700BF0038024080B483B09A
:1034080000AF7860064B9B6823F0F00204497B68A4
:1034180013438B6000BF0C37BD465DF8047B7047D3
:103428000038024080B483B000AF7860064B9B68D8
:1034380023F4E05204497B6813438B6000BF0C37C8
:10344800BD465DF8047B70470038024080B483B005
:1034580000AF7860064B9B6823F4604204497B68A0
:1034680013438B6000BF0C37BD465DF8047B704783
:103478000038024080B483B000AF7860074BD3F8BF
:103488008C3023F0807205497B681343C1F88C3077
:1034980000BF0C37BD465DF8047B7047003802401A
:1034A80080B400AF054B1B68044A43F08073136077
:1034B80000BFBD465DF8047B704700BF003802407E
:1034C80080B400AF074B1B6803F00073B3F1007FB3
:1034D8000CBF01230023DBB21846BD465DF8047B10
:1034E800704700BF0038024080B485B000AFF86074
:1034F800B9607A603B60114B5A68114B1340F96808
:10350800BA6811437A6892010A430C4913434B6025
:103518000A4B5B6823F4403208493B6813434B600D
:10352800064B5B6823F0E04204493B6813434B6059
:1035380000BF1437BD465DF8047B70470038024071
:103548000080BFFF80B483B000AF7860064B1B6873
:1035580023F00F0204497B6813430B6000BF0C374C
:10356800BD465DF8047B7047003C024080B400AF64
:10357800044B1B6803F00F031846BD465DF8047B37
:10358800704700BF003C024080B400AF054B1B6889
:10359800044A43F48033136000BFBD465DF8047BE2
:1035A800704700BF0070004080B483B000AF7860FF
:1035B800064B1B6823F4404204497B6813430B60A5
:1035C80000BF0C37BD465DF8047B704700700040B3
:1035D80080B500AF0520FFF7B5FF00BFFFF7C6FFB6
:1035E8000346052BFAD14FF44040FFF7DDFFFFF704
:1035F800CBFF1020FFF7CAFEFFF7A6FE00BFFFF7BC
:10360800B3FE0346012BFAD10023B422082100207F
:10361800FFF76AFFFFF744FF00BFFFF751FF0346BC
:10362800012BFAD10020FFF7E9FE4FF4A050FFF775
:10363800F9FE4FF40040FFF709FF0220FFF7BCFE38
:1036480000BFFFF7CDFE0346082BFAD1074801F06B
:103658008FFC002000F0A8FF0346002B01D000F0EB
:1036680019F80020FFF706FF00BF80BD0095BA0AD1
:1036780080B582B000AF78607B681B68044A9342CB
:1036880001D101F0F3FE00BF0837BD4680BD00BF81
:10369800000C004080B400AF72B600BF00BFFDE769
:1036A80080B400AF044BDB681B0A03F0070318461D
:1036B800BD465DF8047B704700ED00E080B483B040
:1036C80000AF0346FB7197F90730002B0BDBFB7942
:1036D80003F01F02074997F907305B09012000FA38
:1036E80002F241F8232000BF0C37BD465DF8047B89
:1036F800704700BF00E100E080B483B000AF03462C
:103708003960FB7197F90730002B0ADB3B68DAB2A6
:103718000C4997F907301201D2B20B4483F8002301
:103728000AE03B68DAB20849FB7903F00F03043B6F
:103738001201D2B20B441A7600BF0C37BD465DF8B1
:10374800047B704700E100E000ED00E080B489B040
:1037580000AFF860B9607A60FB6803F00703FB61AB
:10376800FB69C3F10703042B28BF0423BB61FB6972
:103778000433062B02D9FB69033B00E000237B617D
:103788004FF0FF32BB6902FA03F3DA43BB681A4011
:103798007B699A404FF0FF317B6901FA03F3D94303
:1037A8007B680B40134318462437BD465DF8047BFD
:1037B8007047000080B485B000AF7860084B1A6B82
:1037C80007497B6813430B63054B1A6B7B681340EF
:1037D800FB60FB6800BF1437BD465DF8047B70478B
:1037E8000038024080B487B000AF78603960174A6B
:1037F8003B68DBB2023352F823203B681B0CDB43E7
:1038080002EA03013B681B0C3B613B6993FAA3F393
:10381800FB60FB687B617B69002B01D1202303E0FF
:103828007B69B3FA83F3DBB21A467B6803FA02F2C8
:1038380006483B68DBB20A43023340F8232000BF46
:103848001C37BD465DF8047B704700BF0038014057
:1038580080B48BB000AFF860B9607A60FB681A6812
:10386800BB687B617B6993FAA3F33B613B69BB61EE
:10387800BB69002B01D1202303E0BB69B3FA83F3B2
:10388800DBB25B00032101FA03F3DB431A40BB6898
:103898003B623B6A93FAA3F3FB61FB697B627B6A39
:1038A800002B01D1202303E07B6AB3FA83F3DBB258
:1038B8005B00796801FA03F31A43FB681A6000BFDA
:1038C8002C37BD465DF8047B704780B48BB000AFE1
:1038D800F860B9607A60FB68DA68BB687B617B690D
:1038E80093FAA3F33B613B69BB61BB69002B01D130
:1038F800202303E0BB69B3FA83F3DBB25B00032147
:1039080001FA03F3DB431A40BB683B623B6A93FA54
:10391800A3F3FB61FB697B627B6A002B01D1202347
:1039280003E07B6AB3FA83F3DBB25B00796801FAE0
:1039380003F31A43FB68DA6000BF2C37BD465DF815
:10394800047B704780B483B000AF786039607B68CF
:103958003A689A6100BF0C37BD465DF8047B704732
:1039680080B483B000AF786039603B681A047B6824
:103978009A6100BF0C37BD465DF8047B70470000B4
:1039880080B588B000AF07F1180300221A605A60AA
:103998003B4600221A605A609A60DA601A615A61DE
:1039A8000420FFF707FF8020FFF704FF0120FFF73F
:1039B80001FF0220FFF7FEFE4FF438714E48FFF773
:1039C800C1FF80214D48FFF7BDFF4EF232414C4800
:1039D800FFF7C6FF4FF4E8514748FFF7C1FF4949D1
:1039E8000220FFF7FFFE4FF070410120FFF7FAFEBB
:1039F8004FF40053BB6101233B7700237B770223FD
:103A0800BB7707F11803184601F05AFB0823BB617E
:103A180001233B7700237B770323BB7707F1180348
:103A2800184601F04DFB00224FF400513348FFF7D0
:103A38004CFF022208213248FFF747FF00224FF4CB
:103A480000512E48FFF704FF002208212C48FFF7F9
:103A5800FFFE4FF4FF533B6001237B600023BB60F4
:103A68000023FB6000233B613B461946224800F0D7
:103A780040FF4EF212433B6001237B600023BB6092
:103A88000023FB6000233B613B4619461C4800F0BD
:103A980030FF80233B6001237B600023BB60002351
:103AA800FB6000233B613B461946144800F021FFA8
:103AB80020233B6001237B600223BB600023FB6063
:103AC80000233B613B4619460D4800F012FFFFF703
:103AD800E7FD0346002200211846FFF737FE03469C
:103AE80019460920FFF708FE0920FFF7E7FD00BF88
:103AF8002037BD4680BD00BF0000024000080240DC
:103B0800000402400300F00080B400AF044BDB68FF
:103B18001B0A03F007031846BD465DF8047B70478F
:103B280000ED00E080B483B000AF0346FB7197F965
:103B38000730002B0BDBFB7903F01F02074997F9CD
:103B480007305B09012000FA02F241F8232000BF88
:103B58000C37BD465DF8047B704700BF00E100E00C
:103B680080B483B000AF03463960FB7197F9073022
:103B7800002B0ADB3B68DAB20C4997F907301201CF
:103B8800D2B20B4483F800230AE03B68DAB2084952
:103B9800FB7903F00F03043B1201D2B20B441A76EF
:103BA80000BF0C37BD465DF8047B704700E100E0BC
:103BB80000ED00E080B489B000AFF860B9607A60C9
:103BC800FB6803F00703FB61FB69C3F10703042BE0
:103BD80028BF0423BB61FB690433062B02D9FB69A8
:103BE800033B00E000237B614FF0FF32BB6902FA20
:103BF80003F3DA43BB681A407B699A404FF0FF3100
:103C08007B6901FA03F3D9437B680B4013431846D9
:103C18002437BD465DF8047B7047000080B485B04A
:103C280000AF7860084B1A6B07497B6813430B6336
:103C3800054B1A6B7B681340FB60FB6800BF1437A9
:103C4800BD465DF8047B70470038024080B500AF80
:103C58004FF40010FFF7E2FFFFF756FF034600227C
:103C680000211846FFF7A6FF034619461020FFF764
:103C780077FF1020FFF756FF00BF80BD80B483B0E8
:103C880000AF78607B681B6823F080027B681A604D
:103C980000BF0C37BD465DF8047B704780B483B025
:103CA80000AF78607B681B6823F040027B681A606D
:103CB80000BF0C37BD465DF8047B704780B483B005
:103CC80000AF786039607B68DB6823F0FE023B68F0
:103CD8001A437B68DA6000BF0C37BD465DF8047B89
:103CE800704780B483B000AF78607B68DB6823F0EE
:103CF80001027B68DA6000BF0C37BD465DF8047BC3
:103D08007047000080B485B000AF7860084B1A6B2C
:103D180007497B6813430B63054B1A6B7B68134099
:103D2800FB60FB6800BF1437BD465DF8047B704735
:103D38000038024080B485B000AF7860084B1A6C38
:103D480007497B6813430B64054B1A6C7B68134067
:103D5800FB60FB6800BF1437BD465DF8047B704705
:103D68000038024080B58EB000AF07F1180320225A
:103D78000021184602F0E0FD3B4600221A605A6016
:103D88009A60DA601A615A610220FFF7BBFF4FF4AC
:103D980040733B6002237B600323BB600123FB600D
:103DA80000233B6104237B613B461946164800F01B
:103DB800A0FD4FF40010FFF7BDFF1448FFF791FF77
:103DC8001248FFF76BFF1148FFF758FF0023BB614C
:103DD8000F4BFB614FF480433B620023FB624FF4BF
:103DE80080633B634FF480437B6307F118031946F4
:103DF800064800F00BFF00210448FFF75FFF00BFF3
:103E08003837BD4680BD00BF000402400054004062
:103E1800801A060080B400AF044BDB681B0A03F06D
:103E280007031846BD465DF8047B704700ED00E0C7
:103E380080B483B000AF0346FB7197F90730002BBD
:103E48000BDBFB7903F01F02074997F907305B0981
:103E5800012000FA02F241F8232000BF0C37BD46CA
:103E68005DF8047B704700BF00E100E080B483B0D8
:103E780000AF03463960FB7197F90730002B0ADB66
:103E88003B68DAB20C4997F907301201D2B20B44F9
:103E980083F800230AE03B68DAB20849FB7903F0AB
:103EA8000F03043B1201D2B20B441A7600BF0C3741
:103EB800BD465DF8047B704700E100E000ED00E0DE
:103EC80080B489B000AFF860B9607A60FB6803F02D
:103ED8000703FB61FB69C3F10703042B28BF042315
:103EE800BB61FB690433062B02D9FB69033B00E085
:103EF80000237B614FF0FF32BB6902FA03F3DA4318
:103F0800BB681A407B699A404FF0FF317B6901FA20
:103F180003F3D9437B680B40134318462437BD4647
:103F28005DF8047B7047000080B485B000AF78600E
:103F3800084B1A6C07497B6813430B64054B1A6CD2
:103F48007B681340FB60FB6800BF1437BD465DF813
:103F5800047B70470038024080B483B000AF7860BB
:103F68007B681B6823F080027B681A6000BF0C37EF
:103F7800BD465DF8047B704780B483B000AF7860BD
:103F880039607B689B6823F4804323F007033A6811
:103F98001A437B689A6000BF0C37BD465DF8047B06
:103FA800704780B483B000AF786039607B685B6825
:103FB80023F070023B681A437B685A6000BF0C37D5
:103FC800BD465DF8047B704780B483B000AF78606D
:103FD8007B689B6823F080027B689A6000BF0C377F
:103FE800BD465DF8047B704780B586B000AF3B1DC9
:103FF80000221A605A609A60DA601A610120FFF79D
:1040080093FFFFF707FF0346002200211846FFF73A
:1040180057FF034619461C20FFF728FF1C20FFF70F
:1040280007FF40F20773BB800023BB600F23FB60D0
:1040380000233B613B1D19464FF0804001F01EFDF7
:104048004FF08040FFF788FF00214FF08040FFF7D6
:1040580093FF00214FF08040FFF7A3FF4FF080400F
:10406800FFF7B2FF00BF1837BD4680BD80B485B0EA
:1040780000AFF860B9607A600D4ABB6813441B78DA
:104088001A46FB6813441B6823F0C0020849BB6842
:104098000B441B781946FB680B4419467B6813438D
:1040A8000B6000BF1437BD465DF8047B704700BF46
:1040B800C469000880B485B000AFF860B9607A6060
:1040C8000D4ABB6813441B781A46FB6813441B68E7
:1040D80023F490720849BB680B441B781946FB68A7
:1040E8000B4419467B6813430B6000BF1437BD4669
:1040F8005DF8047B704700BFC469000880B485B0D0
:1041080000AFF860B9607A600D4ABB6813441B7849
:104118001A46FB6813441B6823F400720849BB68FD
:104128000B441B781946FB680B4419467B681343FC
:104138000B6000BF1437BD465DF8047B704700BFB5
:10414800C469000880B485B000AFF860B9607A60CF
:104158000D4ABB6813441B781A46FB6813441B6856
:1041680023F480620849BB680B441B781946FB6836
:104178000B4419467B6813430B6000BF1437BD46D8
:104188005DF8047B704700BFC469000880B485B03F
:1041980000AFF860B9607A600D4ABB6813441B78B9
:1041A8001A46FB6813441B6823F4C0520849BB68CD
:1041B8000B441B781946FB680B4419467B6813436C
:1041C8000B6000BF1437BD465DF8047B704700BF25
:1041D800C469000880B485B000AFF860B9607A603F
:1041E8000D4ABB6813441B781A46FB6813441B68C6
:1041F80023F4C0420849BB680B441B781946FB6886
:104208000B4419467B6813430B6000BF1437BD4647
:104218005DF8047B704700BFC469000880B485B0AE
:1042280000AFF860B9607A600D4ABB6813441B7828
:104238001A46FB6813441B6823F440320849BB68DC
:104248000B441B781946FB680B4419467B681343DB
:104258000B6000BF1437BD465DF8047B704700BF94
:10426800C469000880B485B000AFF860B9607A60AE
:104278000D4ABB6813441B781A46FB6813441B6835
:1042880023F060620849BB680B441B781946FB6839
:104298000B4419467B6813430B6000BF1437BD46B7
:1042A8005DF8047B704700BFC469000880B483B020
:1042B80000AF786039600C4A3B6813441B781A4693
:1042C8007B6813445B6908493A680A4412781146C6
:1042D8007A680A4423F00403536100BF0C37BD46D3
:1042E8005DF8047B704700BFC469000880B485B0DE
:1042F80000AF7860084B1A6B07497B6813430B6360
:10430800054B1A6B7B681340FB60FB6800BF1437D2
:10431800BD465DF8047B70470038024080B485B024
:1043280000AF7860084B1A6C07497B6813430B642D
:10433800054B1A6C7B681340FB60FB6800BF1437A1
:10434800BD465DF8047B70470038024080B483B0F6
:1043580000AF78607B68DB6843F400527B68DA6002
:1043680000BF0C37BD465DF8047B704780B483B04E
:1043780000AF78607B681B6923F490427B681A6100
:104388007B685B6923F02A027B685A6100BF0C379F
:10439800BD465DF8047B704780B58EB000AF07F16D
:1043A8001C0300221A605A609A60DA601A615A6126
:1043B8009A613B1D00221A605A609A60DA601A619D
:1043C8005A614FF40030FFF7A9FF0120FFF78EFF75
:1043D8000C237B600223BB600323FB6000233B614B
:1043E80000237B610723BB613B1D1946274800F06A
:1043F80080FA4FF0006205212548FFF733FF0022BD
:1044080005212348FFF732FE002205212048FFF747
:1044180005FF002205211E48FFF74CFE002205215A
:104428001B48FFF76BFE4FF4806205211848FFF721
:1044380089FE002205211648FFF7A8FE0022052163
:104448001348FFF7C7FE05211148FFF72FFF4FF468
:10445800E133FB6100233B6200237B620023BB62E4
:104468000C23FB6200233B6300237B6307F11C03DF
:104478001946084801F004FE0648FFF777FF05488B
:10448800FFF764FF00BF3837BD4680BD000002401B
:10449800006002400044004080B483B000AF786000
:1044A800074B5A697B6813407A689A420CBF01230C
:1044B8000023DBB218460C37BD465DF8047B704715
:1044C800003C014080B483B000AF7860044A7B6848
:1044D800536100BF0C37BD465DF8047B704700BFD1
:1044E800003C014080B400AF00BFFDE780B400AFDE
:1044F80000BFFDE780B400AF00BFFDE780B400AFA8
:1045080000BFFDE780B400AF00BFFDE780B400AF97
:1045180000BFBD465DF8047B704780B500AF08203A
:10452800FFF7BAFF0346002B02D00820FFF7CAFFA7
:1045380000BF80BD80B400AF00BFBD465DF8047BFE
:104548007047000080B500AF024801F079F800BF5D
:1045580080BD00BF6002002080B582B000AF00239C
:104568007B60104B5B6C0F4A43F4804353640D4BE4
:104578005B6C03F480437B607B6800233B60094BE2
:104588001B6C084A43F080531364064B1B6C03F002
:1045980080533B603B68072000F011FF00BF0837DD
:1045A800BD4680BD0038024080B58CB000AF786051
:1045B8000023FB620023BB6200227968322000F0EE
:1045C80009FF322000F022FF0023FB601F4B1B6C09
:1045D8001E4A43F0080313641C4B1B6C03F00803CA
:1045E800FB60FB6807F1100207F114031146184637
:1045F80000F006FE00F0F0FD03465B00FB62FB6A7C
:10460800134AA2FB03239B0C013BBB62114B124ACA
:104618001A60104B40F2E732DA600E4ABB6A536008
:104628000C4B00221A610B4B00229A60094800F0DB
:104638003DFF0346002B04D1064800F091FF0346D6
:1046480000E0012318463037BD4680BD00380240DF
:1046580083DE1B4360020020000C004080B48BB056
:1046680000AFF860B9607A60FB681A68BB687B6164
:104678007B6993FAA3F33B613B69BB61BB69002B80
:1046880001D1202303E0BB69B3FA83F3DBB25B00FB
:10469800032101FA03F3DB431A40BB683B623B6A20
:1046A80093FAA3F3FB61FB697B627B6A002B01D160
:1046B800202303E07B6AB3FA83F3DBB25B007968FB
:1046C80001FA03F31A43FB681A6000BF2C37BD4692
:1046D8005DF8047B704780B485B000AFF860B960BE
:1046E8007A60FB685A68BB68DB431A40BB68796824
:1046F80001FB03F31A43FB685A6000BF1437BD4639
:104708005DF8047B704780B48BB000AFF860B96087
:104718007A60FB689A68BB687B617B6993FAA3F34C
:104728003B613B69BB61BB69002B01D1202303E0DE
:10473800BB69B3FA83F3DBB25B00032101FA03F32D
:10474800DB431A40BB683B623B6A93FAA3F3FB6105
:10475800FB697B627B6A002B01D1202303E07B6A23
:10476800B3FA83F3DBB25B00796801FA03F31A4307
:10477800FB689A6000BF2C37BD465DF8047B704724
:1047880080B48BB000AFF860B9607A60FB68DA6813
:10479800BB687B617B6993FAA3F33B613B69BB61AF
:1047A800BB69002B01D1202303E0BB69B3FA83F373
:1047B800DBB25B00032101FA03F3DB431A40BB6859
:1047C8003B623B6A93FAA3F3FB61FB697B627B6AFA
:1047D800002B01D1202303E07B6AB3FA83F3DBB219
:1047E8005B00796801FA03F31A43FB68DA6000BFDB
:1047F8002C37BD465DF8047B704780B48BB000AFA2
:10480800F860B9607A60FB681A6ABB687B617B698B
:1048180093FAA3F33B613B69BB61BB69002B01D1F0
:10482800202303E0BB69B3FA83F3DBB29B000F21BB
:1048380001FA03F3DB431A40BB683B623B6A93FA15
:10484800A3F3FB61FB697B627B6A002B01D1202308
:1048580003E07B6AB3FA83F3DBB29B00796801FA61
:1048680003F31A43FB681A6200BF2C37BD465DF894
:10487800047B704780B48BB000AFF860B9607A6091
:10488800FB685A6ABB681B0A7B617B6993FAA3F3CE
:104898003B613B69BB61BB69002B01D1202303E06D
:1048A800BB69B3FA83F3DBB29B000F2101FA03F370
:1048B800DB431A40BB681B0A3B623B6A93FAA3F3CB
:1048C800FB61FB697B627B6A002B01D1202303E03B
:1048D8007B6AB3FA83F3DBB29B00796801FA03F3CE
:1048E8001A43FB685A6200BF2C37BD465DF8047B4B
:1048F800704780B58AB000AF7860396000237B626A
:1049080000233B623B681B68BB61BB6993FAA3F356
:104918007B617B69FB61FB69002B01D1202303E0EC
:10492800FB69B3FA83F3DBB27B6257E03B681A6832
:1049380001217B6A01FA03F313403B623B6A002BB7
:1049480049D03B685B68012B03D03B685B68022B4E
:104958000DD13B689B681A46396A7868FFF7D3FE21
:104968003B68DB681A46396A7868FFF7B4FE3B682B
:104978001B691A46396A7868FFF702FF3B685B686B
:10498800022B21D13B6AFB60FB6893FAA3F3BB605F
:10499800BB683B613B69002B01D1202303E03B69E5
:1049A800B3FA83F3DBB2072B07D83B685B691A4677
:1049B800396A7868FFF721FF06E03B685B691A46A9
:1049C800396A7868FFF756FF3B685B681A46396AA8
:1049D8007868FFF743FE7B6A01337B623B681A689D
:1049E8007B6A22FA03F3002BA0D10023184628374C
:1049F800BD4680BD80B483B000AF78607B681B681B
:104A080043F001027B681A6000BF0C37BD465DF8B1
:104A1800047B704780B483B000AF78607B681B6804
:104A280023F001027B681A6000BF0C37BD465DF8B1
:104A3800047B704780B485B000AFF860B9607A60D5
:104A4800FB685B6A23F01F02B9687B680B431A4353
:104A5800FB685A6200BF1437BD465DF8047B704797
:104A680080B485B000AFF860B9607A60FB689B6875
:104A780023F4034323F0FF03B9687A680A431A430F
:104A8800FB689A6000BF1437BD465DF8047B704729
:104A980080B487B000AFF860B9607A603B600023EB
:104AA8003B6100237B61BB68424AA2FB03239B0C4A
:104AB8003B61FB685B6823F03F023B691A43FB6874
:104AC8005A60FB681B6A23F03F027B683A498B42B5
:104AD80002D83B69013309E03B694FF4967101FB49
:104AE80003F33649A1FB03139B0901331A43FB68FF
:104AF8001A627B68304A934239D93B68002B17D138
:104B08007A6813465B001344BA68B2FBF3F3C3F345
:104B18000B03002B09D07A6813465B001344BA686C
:104B2800B2FBF3F343F400431DE048F201031AE03B
:104B38007A6813469B0013449A001344BA68B2FB80
:104B4800F3F3C3F30B03002B0BD07A6813469B00D7
:104B580013449A001344BA68B2FBF3F343F40043D6
:104B680001E048F201033A6813437B6111E07B6876
:104B78005B00BA68B2FBF3F240F6FC731340002BFB
:104B880005D07B685B00BA68B2FBF3F300E004234E
:104B98007B61FB68DB6923F44F4323F0FF037A69E9
:104BA8001A43FB68DA6100BF1C37BD465DF8047B19
:104BB800704700BF83DE1B43A0860100D34D6210FF
:104BC80080B483B000AF786039607B681B6823F0DD
:104BD8001A023B681A437B681A6000BF0C37BD464F
:104BE8005DF8047B704780B483B000AF78603960AB
:104BF8007B681B6823F480623B681A437B681A60F1
:104C080000BF0C37BD465DF8047B704780B586B0A1
:104C180000AF786039607868FFF7FCFE07F1080399
:104C2800184600F0ABF83B68D9683B681B691A4620
:104C38007868FFF7FFFE39693B685A683B689B68EC
:104C48007868FFF725FF3B6859693B68DB691A46B6
:104C58007868FFF705FF3B681B6819467868FFF717
:104C6800AFFF7868FFF7C6FE3B689B69194678680E
:104C7800FFF7B9FF002318461837BD4680BD00006E
:104C880080B400AF044B9B6803F00C031846BD4684
:104C98005DF8047B704700BF0038024080B400AF65
:104CA800044B9B6803F0F0031846BD465DF8047B8F
:104CB800704700BF0038024080B400AF044B9B68C7
:104CC80003F4E0531846BD465DF8047B704700BF07
:104CD8000038024080B400AF044B9B6803F4604383
:104CE8001846BD465DF8047B704700BF0038024097
:104CF80080B400AF044B5B6803F480031846BD46DC
:104D08005DF8047B704700BF0038024080B400AFF4
:104D1800044B5B689B09C3F308031846BD465DF85E
:104D2800047B70470038024080B400AF044B5B68D6
:104D380003F440331846BD465DF8047B704700BF56
:104D48000038024080B400AF044B5B6803F0E043D6
:104D58001846BD465DF8047B704700BF0038024026
:104D680080B400AF044B5B6803F03F031846BD46B0
:104D78005DF8047B704700BF0038024080B582B000
:104D880000AF786000F020F802467B681A607B6804
:104D98001B68184600F05CF802467B685A607B681E
:104DA8005B68184600F06AF802467B689A607B6880
:104DB8005B68184600F076F802467B68DA6000BF48
:104DC8000837BD4680BD000080B582B000AF002323
:104DD8007B60FFF755FF03460C2B2DD801A252F834
:104DE80023F000BF214E0008414E0008414E000844
:104DF800414E0008274E0008414E0008414E000869
:104E0800414E00082D4E0008414E0008414E000852
:104E1800414E0008374E00080B4B7B600FE00B4BF0
:104E28007B600CE0082000F051F8786007E00C2067
:104E380000F04CF8786002E0034B7B6000BF7B68B1
:104E480018460837BD4680BD0024F40000127A00D9
:104E580080B582B000AF7860FFF720FF03461B09DA
:104E680003F00F03044AD35C1A467B68D340184604
:104E78000837BD4680BD00BFCC69000880B582B048
:104E880000AF7860FFF718FF03469B0A044AD35C1B
:104E98001A467B68D34018460837BD4680BD00BF18
:104EA800DC69000880B582B000AF7860FFF712FFB8
:104EB80003465B0B044AD35C1A467B68D34018460A
:104EC8000837BD4680BD00BFDC69000890B587B0D3
:104ED80000AF786000237B610023FB6000233B6107
:104EE800FFF706FFF860FB68002B04D0FB68B3F5FA
:104EF800800F03D005E01C4B7B6105E01B4B7B61F9
:104F080002E0194B7B6100BF7B68082B14D1FFF7C7
:104F180027FF02467B69B3FBF2F4FFF7F7FE03466F
:104F280003FB04F4FFF700FF03461B0C01335B008F
:104F3800B4FBF3F33B6111E0FFF712FF02467B6914
:104F4800B3FBF2F4FFF7E2FE034603FB04F4FFF7BA
:104F5800F9FE03461B0FB4FBF3F33B613B691846AC
:104F68001C37BD4690BD00BF0024F40000127A0033
:104F780080B483B000AF7860044A7B68136000BFD8
:104F88000C37BD465DF8047B704700BF3C0000202D
:104F980080B483B000AF7860054B1A6804497B6819
:104FA80013430B6000BF0C37BD465DF8047B7047A8
:104FB800003C014080B483B000AF7860064B1A68AB
:104FC8007B68DB43044913400B6000BF0C37BD46C8
:104FD8005DF8047B704700BF003C014080B483B09B
:104FE80000AF7860054B5A6804497B6813434B60EF
:104FF80000BF0C37BD465DF8047B7047003C01409C
:1050080080B483B000AF7860064B5A687B68DB4396
:10501800044913404B6000BF0C37BD465DF8047B64
:10502800704700BF003C014080B483B000AF786097
:10503800054B9A6804497B6813438B6000BF0C37A3
:10504800BD465DF8047B7047003C014080B483B0E6
:1050580000AF7860064B9A687B68DB4304491340CD
:105068008B6000BF0C37BD465DF8047B704700BFFE
:10507800003C014080B483B000AF7860054BDA682B
:1050880004497B681343CB6000BF0C37BD465DF80D
:10509800047B7047003C014080B483B000AF786067
:1050A800064BDA687B68DB4304491340CB6000BFDA
:1050B8000C37BD465DF8047B704700BF003C0140DB
:1050C80080B584B000AF78600023FB737B681B79E0
:1050D800002B65D07B681B68002B6BD07B685B79E5
:1050E800022B1CD0022B25DC002B02D0012B0BD06D
:1050F80020E07B681B681846FFF782FF7B681B6807
:105108001846FFF745FF18E07B681B681846FFF74D
:1051180051FF7B681B681846FFF760FF0DE07B684E
:105128001B681846FFF734FF7B681B681846FFF7B3
:1051380055FF02E00123FB7300BF7B689B79002BBE
:1051480038D07B689B79032B1CD0032B25DC012BE3
:1051580002D0022B0BD020E07B681B681846FFF7B3
:105168009BFF7B681B681846FFF75EFF22E07B68A1
:105178001B681846FFF76AFF7B681B681846FFF72D
:1051880079FF17E07B681B681846FFF74DFF7B68BF
:105198001B681846FFF76EFF0CE00123FB7309E05C
:1051A8007B681B681846FFF705FF7B681B68184675
:1051B800FFF726FFFB7B18461037BD4680BD000071
:1051C80080B400AF034B1B681846BD465DF8047BEE
:1051D800704700BF3C00002080B500AFFFF7F0FF2C
:1051E8000246054B9B689B0A03F007030349CB5C07
:1051F80022FA03F3184680BD00380240DC69000833
:1052080080B483B000AF786039607B680F221A6081
:10521800124B9B6803F003027B685A600F4B9B6834
:1052280003F0F0027B689A600C4B9B6803F4E05231
:105238007B68DA60094B9B68DB0803F4E0527B6803
:105248001A61074B1B6803F00F023B681A6000BF26
:105258000C37BD465DF8047B704700BF003802403C
:10526800003C024080B485B000AF78607B6803F0F2
:105278000703FB600C4BDB68BB60BA684FF6FF03A3
:105288001340BB60FB681A02BB68134343F0BF635B
:1052980043F40033BB60044ABB68D36000BF1437D3
:1052A800BD465DF8047B704700ED00E080B400AFB8
:1052B800044BDB681B0A03F007031846BD465DF87C
:1052C800047B704700ED00E080B483B000AF034674
:1052D800FB7197F90730002B0BDBFB7903F01F02FA
:1052E800074997F907305B09012000FA02F241F8F3
:1052F800232000BF0C37BD465DF8047B704700BF14
:1053080000E100E080B483B000AF03463960FB7170
:1053180097F90730002B0ADB3B68DAB20C4997F99A
:1053280007301201D2B20B4483F800230AE03B682D
:10533800DAB20849FB7903F00F03043B1201D2B239
:105348000B441A7600BF0C37BD465DF8047B7047E6
:1053580000E100E000ED00E080B489B000AFF86043
:10536800B9607A60FB6803F00703FB61FB69C3F16E
:105378000703042B28BF0423BB61FB690433062BF6
:1053880002D9FB69033B00E000237B614FF0FF3249
:10539800BB6902FA03F3DA43BB681A407B699A4097
:1053A8004FF0FF317B6901FA03F3D9437B680B4067
:1053B800134318462437BD465DF8047B704780B513
:1053C80082B000AF78607868FFF74CFF00BF0837FD
:1053D800BD4680BD80B586B000AF0346B9607A602F
:1053E800FB7300237B61FFF761FF78617A68B96816
:1053F8007869FFF7B1FF024697F90F301146184652
:10540800FFF780FF00BF1837BD4680BD80B582B06A
:1054180000AF0346FB7197F907301846FFF754FFB2
:1054280000BF0837BD4680BD80B500AF0E4B1B6876
:105438000D4A43F4007313600B4B1B680A4A43F48C
:1054480080631360084B1B68074A43F4807313603A
:105458000320FFF7B4FF0020FFF7A6F8FFF77CF85A
:105468000023184680BD00BF003C024080B400AF56
:10547800064B1B781A46064B1B681344044A1360F4
:1054880000BFBD465DF8047B704700BF38000020B0
:10549800A802002080B400AF034B1B681846BD4625
:1054A8005DF8047B704700BFA802002080B582B079
:1054B80000AF78607B68002B01D1012341E07B6855
:1054C80093F83D30DBB2002B06D17B68002283F8CD
:1054D8003C20786800F039F87B68022283F83D2088
:1054E8007B681A687B6804331946104600F0D8F9BF
:1054F8007B68012283F846207B68012283F83E20DE
:105508007B68012283F83F207B68012283F84020D2
:105518007B68012283F841207B68012283F84220BE
:105528007B68012283F843207B68012283F84420AA
:105538007B68012283F845207B68012283F83D209F
:10554800002318460837BD4680BD80B483B000AF3D
:10555800786000BF0C37BD465DF8047B70470000DB
:1055680080B485B000AF78607B6893F83D30DBB2DB
:10557800012B01D001234EE07B68022283F83D20F5
:105588007B681B68DA687B681B6842F00102DA6096
:105598007B681B68234A934222D07B681B68B3F15F
:1055A800804F1DD07B681B681F4A934218D07B68C8
:1055B8001B681E4A934213D07B681B681C4A93429F
:1055C8000ED07B681B681B4A934209D07B681B6816
:1055D800194A934204D07B681B68184A934211D138
:1055E8007B681B689B6803F00703FB60FB68062B5E
:1055F80010D07B681B681A687B681B6842F0010240
:105608001A6007E07B681B681A687B681B6842F0B1
:1056180001021A60002318461437BD465DF8047B62
:10562800704700BF0000014000040040000800402F
:10563800000C0040000401400040014000180040F8
:1056480080B582B000AF78607B681B681B6903F087
:105658000203022B22D17B681B68DB6803F002037C
:10566800022B1BD17B681B686FF002021A617B68F2
:1056780001221A777B681B689B6903F00303002BE0
:1056880003D0786800F0EEF805E0786800F0E0F8FC
:10569800786800F0F1F87B6800221A777B681B684D
:1056A8001B6903F00403042B22D17B681B68DB68A9
:1056B80003F00403042B1BD17B681B686FF0040202
:1056C8001A617B6802221A777B681B689B6903F45E
:1056D8004073002B03D0786800F0C4F805E07868C0
:1056E80000F0B6F8786800F0C7F87B6800221A77EF
:1056F8007B681B681B6903F00803082B22D17B68B1
:105708001B68DB6803F00803082B1BD17B681B6848
:105718006FF008021A617B6804221A777B681B689D
:10572800DB6903F00303002B03D0786800F09AF8D4
:1057380005E0786800F08CF8786800F09DF87B68E0
:1057480000221A777B681B681B6903F01003102B73
:1057580022D17B681B68DB6803F01003102B1BD178
:105768007B681B686FF010021A617B6808221A7741
:105778007B681B68DB6903F44073002B03D07868EF
:1057880000F070F805E0786800F062F8786800F0DA
:1057980073F87B6800221A777B681B681B6903F023
:1057A8000103012B0ED17B681B68DB6803F0010342
:1057B800012B07D17B681B686FF001021A617868BA
:1057C800FDF756FF7B681B681B6903F08003802B7D
:1057D8000ED17B681B68DB6803F08003802B07D140
:1057E8007B681B686FF080021A61786800F002F924
:1057F8007B681B681B6903F04003402B0ED17B6854
:105808001B68DB6803F04003402B07D17B681B68EB
:105818006FF040021A61786800F038F87B681B68FE
:105828001B6903F02003202B0ED17B681B68DB6803
:1058380003F02003202B07D17B681B686FF0200240
:105848001A61786800F0CCF800BF0837BD4680BD03
:1058580080B483B000AF786000BF0C37BD465DF8F8
:10586800047B704780B483B000AF786000BF0C370A
:10587800BD465DF8047B704780B483B000AF7860A4
:1058880000BF0C37BD465DF8047B704780B483B019
:1058980000AF786000BF0C37BD465DF8047B7047E9
:1058A80080B485B000AF786039607B681B68FB60A6
:1058B8007B68404A934213D07B68B3F1804F0FD086
:1058C8007B683D4A93420BD07B683C4A934207D0A1
:1058D8007B683B4A934203D07B683A4A934208D19B
:1058E800FB6823F07003FB603B685B68FA6813434E
:1058F800FB607B682F4A93422BD07B68B3F1804FC3
:1059080027D07B682C4A934223D07B682B4A93424A
:105918001FD07B682A4A93421BD07B68294A93424E
:1059280017D07B68284A934213D07B68274A934252
:105938000FD07B68264A93420BD07B68254A934256
:1059480007D07B68244A934203D07B68234A93425A
:1059580008D1FB6823F44073FB603B68DB68FA6896
:105968001343FB60FB6823F080023B685B691343C9
:10597800FB607B68FA681A603B689A687B68DA6241
:105988003B681A687B689A627B680A4A934203D02C
:105998007B680C4A934203D13B681A697B681A6397
:1059A8007B6801225A6100BF1437BD465DF8047B4D
:1059B800704700BF0000014000040040000800409C
:1059C800000C004000040140004001400044014038
:1059D8000048014000180040001C00400020004022
:1059E80080B483B000AF786000BF0C37BD465DF867
:1059F800047B704780B483B000AF786000BF0C3779
:105A0800BD465DF8047B704780B483B000AF786012
:105A180039607B683A689A6200BF0C37BD465DF80A
:105A2800047B704780B483B000AF786039607B68CE
:105A38003A68DA6200BF0C37BD465DF8047B7047F0
:105A480080B483B000AF786039607B683A681A63C5
:105A580000BF0C37BD465DF8047B704780B483B047
:105A680000AF78607B685B6943F001027B685A612C
:105A780000BF0C37BD465DF8047B704780B584B025
:105A880000AF786039607B681B68FB607B683D4AC3
:105A9800934213D07B68B3F1804F0FD07B683A4AAA
:105AA80093420BD07B68394A934207D07B68384AC7
:105AB800934203D07B68374A934206D1FB6823F0B0
:105AC80070023B685B681343FB607B682D4A934216
