:020000040800F2
:1000000000000220E16D0008894F0008914F0008B0
:10001000994F0008A14F0008A94F000800000000F8
:10002000000000000000000000000000153C000877
:10003000B14F000800000000D13B0008013B000860
:10004000316E0008316E0008316E0008316E000814
:10005000316E0008316E0008316E0008316E000804
:10006000316E0008BF4F0008316E0008316E000885
:10007000316E0008316E0008316E0008316E0008E4
:10008000D94F0008316E0008316E0008316E00084B
:10009000316E0008316E0008316E0008316E0008C4
:1000A000316E0008316E0008316E0008316E0008B4
:1000B000E74F0008316E0008316E0008316E00080D
:1000C000316E0008316E0008316E0008316E000894
:1000D000316E0008316E0008316E0008652400089A
:1000E000316E0008316E0008316E0008316E000874
:1000F000316E0008316E0008316E0008316E000864
:10010000316E0008316E0008F54F0008316E0008AE
:10011000316E0008316E0008316E0008316E000843
:10012000316E0008316E0008316E0008316E000833
:10013000316E00080000000000000000316E000871
:10014000316E0008316E0008316E0008316E000813
:10015000316E0008316E0008316E0008316E000803
:10016000316E0008316E0008316E0008316E0008F3
:10017000316E0008316E0008316E0008000000008A
:1001800000000000316E00080000000000000000C8
:10019000316E00080000000000000000316E000811
:1001A000000000000000000000000000316E0008A8
:1001B000316E0008316E0008316E0008316E0008A3
:0401C000316E000894
:1001D00081F0004102E000BF83F0004330B54FEAF8
:1001E00041044FEA430594EA050F08BF90EA020F65
:1001F0001FBF54EA000C55EA020C7FEA645C7FEAF8
:10020000655C00F0E2804FEA5454D4EB5555B8BF1A
:100210006D420CDD2C4480EA020281EA030382EA8B
:10022000000083EA010180EA020281EA0303362D1D
:1002300088BF30BD11F0004F4FEA01314FF4801CF0
:100240004CEA113102D0404261EB410113F0004F02
:100250004FEA03334CEA133302D0524263EB4303B9
:1002600094EA050F00F0A780A4F10104D5F1200E57
:100270000DDB02FA0EFC22FA05F2801841F10001B2
:1002800003FA0EF2801843FA05F359410EE0A5F186
:1002900020050EF1200E012A03FA0EFC28BF4CF0B7
:1002A000020C43FA05F3C01851EBE37101F000456D
:1002B00007D54FF0000EDCF1000C7EEB00006EEB7A
:1002C0000101B1F5801F1BD3B1F5001F0CD3490804
:1002D0005FEA30004FEA3C0C04F101044FEA44525B
:1002E00012F5800F80F09A80BCF1004F08BF5FEAE2
:1002F000500C50F1000041EB045141EA050130BDC2
:100300005FEA4C0C404141EB0101013C28BFB1F5D3
:10031000801FE9D291F0000F04BF01460020B1FA1E
:1003200081F308BF2033A3F10B03B3F120020CDAF1
:100330000C3208DD02F1140CC2F10C0201FA0CF0CF
:1003400021FA02F10CE002F11402D8BFC2F1200C34
:1003500001FA02F120FA0CFCDCBF41EA0C019040EA
:10036000E41AA2BF01EB0451294330BD6FEA040433
:100370001F3C1CDA0C340EDC04F11404C4F120021E
:1003800020FA04F001FA02F340EA030021FA04F330
:1003900045EA030130BDC4F10C04C4F1200220FA87
:1003A00002F001FA04F340EA0300294630BD21FAC5
:1003B00004F0294630BD94F0000F83F4801306BF8B
:1003C00081F480110134013D4EE77FEA645C18BF7F
:1003D0007FEA655C29D094EA050F08BF90EA020F16
:1003E00005D054EA000C04BF1946104630BD91EA0E
:1003F000030F1EBF0021002030BD5FEA545C05D111
:100400004000494128BF41F0004130BD14F580044F
:100410003CBF01F5801130BD01F0004545F0FE41C3
:1004200041F470014FF0000030BD7FEA645C1ABFF8
:10043000194610467FEA655C1CBF0B46024650EA2F
:10044000013406BF52EA033591EA030F41F400215B
:1004500030BD00BF90F0000F04BF0021704730B5E1
:100460004FF4806404F132044FF000054FF00001B6
:1004700050E700BF90F0000F04BF0021704730B577
:100480004FF4806404F1320410F0004548BF40424C
:100490004FF000013EE700BF42004FEAE2014FEAA1
:1004A00031014FEA02701FBF12F07F4393F07F4F7C
:1004B00081F06051704732F07F4208BF704793F07F
:1004C0007F4F04BF41F40021704730B54FF4607492
:1004D00001F0004521F000411CE700BF50EA010295
:1004E00008BF704730B54FF000050AE050EA01023E
:1004F00008BF704730B511F0004502D5404261EBAE
:1005000041014FF4806404F132045FEA915C3FF4EE
:10051000D8AE4FF003025FEADC0C18BF03325FEA8B
:10052000DC0C18BF033202EBDC02C2F1200300FA3C
:1005300003FC20FA02F001FA03FE40EA0E0021FA61
:1005400002F11444BDE600BF70B54FF0FF0C4CF44F
:10055000E06C1CEA11541DBF1CEA135594EA0C0F01
:1005600095EA0C0F00F0DEF82C4481EA030621EA3C
:100570004C5123EA4C5350EA013518BF52EA033577
:1005800041F4801143F4801338D0A0FB02CE4FF029
:100590000005E1FB02E506F00042E0FB03E54FF059
:1005A0000006E1FB03569CF0000F18BF4EF0010E51
:1005B000A4F1FF04B6F5007F64F5407404D25FEA4D
:1005C0004E0E6D4146EB060642EAC62141EA555100
:1005D0004FEAC52040EA5E504FEACE2EB4F1FD0C42
:1005E00088BFBCF5E06F1ED8BEF1004F08BF5FEAC0
:1005F000500E50F1000041EB045170BD06F0004672
:1006000046EA010140EA020081EA0301B4EB5C041E
:10061000C2BFD4EB0C0541EA045170BD41F4801116
:100620004FF0000E013C00F3AB8014F1360FDEBF3B
:10063000002001F0004170BDC4F10004203C35DA17
:100640000C341BDC04F11404C4F1200500FA05F39A
:1006500020FA04F001FA05F240EA020001F000423B
:1006600021F0004110EBD37021FA04F642EB0601B1
:100670005EEA430E08BF20EAD37070BDC4F10C04DB
:10068000C4F1200500FA04F320FA05F001FA04F29F
:1006900040EA020001F0004110EBD37041F100018B
:1006A0005EEA430E08BF20EAD37070BDC4F1200596
:1006B00000FA05F24EEA020E20FA04F301FA05F2FE
:1006C00043EA020321FA04F001F0004121FA04F2A6
:1006D00020EA020000EBD3705EEA430E08BF20EA76
:1006E000D37070BD94F0000F0FD101F000464000B0
:1006F00041EB010111F4801F08BF013CF7D041EA32
:10070000060195F0000F18BF704703F00046520035
:1007100043EB030313F4801F08BF013DF7D043EA06
:100720000603704794EA0C0F0CEA135518BF95EABC
:100730000C0F0CD050EA410618BF52EA4306D1D143
:1007400081EA030101F000414FF0000070BD50EA62
:10075000410606BF1046194652EA430619D094EAEC
:100760000C0F02D150EA013613D195EA0C0F05D1D6
:1007700052EA03361CBF104619460AD181EA03012A
:1007800001F0004141F0FE4141F470014FF00000E2
:1007900070BD41F0FE4141F4780170BD70B54FF07D
:1007A000FF0C4CF4E06C1CEA11541DBF1CEA1355FD
:1007B00094EA0C0F95EA0C0F00F0A7F8A4EB0504DF
:1007C00081EA030E52EA03354FEA013100F08880D6
:1007D0004FEA03334FF0805545EA131343EA12639F
:1007E0004FEA022245EA111545EA10654FEA002654
:1007F0000EF000419D4208BF964244F1FD0404F50D
:10080000407402D25B084FEA3202B61A65EB030568
:100810005B084FEA32024FF480104FF4002CB6EB25
:10082000020E75EB030E22BFB61A754640EA0C00A5
:100830005B084FEA3202B6EB020E75EB030E22BFE5
:10084000B61A754640EA5C005B084FEA3202B6EB26
:10085000020E75EB030E22BFB61A754640EA9C00E5
:100860005B084FEA3202B6EB020E75EB030E22BFB5
:10087000B61A754640EADC0055EA060E18D04FEA73
:10088000051545EA16754FEA06164FEAC30343EA13
:1008900052734FEAC2025FEA1C1CC0D111F4801FE0
:1008A0000BD141EA00014FF000004FF0004CB6E7D9
:1008B00011F4801F04BF01430020B4F1FD0C88BF78
:1008C000BCF5E06F3FF6AFAEB5EB030C04BFB6EB83
:1008D000020C5FEA500C50F1000041EB045170BD76
:1008E0000EF0004E4EEA113114EB5C04C2BFD4EBA3
:1008F0000C0541EA045170BD41F480114FF0000E27
:10090000013C90E645EA060E8DE60CEA135594EAA2
:100910000C0F08BF95EA0C0F3FF43BAF94EA0C0FA5
:100920000AD150EA01347FF434AF95EA0C0F7FF41A
:1009300025AF104619462CE795EA0C0F06D152EA6E
:1009400003353FF4FDAE1046194622E750EA410652
:1009500018BF52EA43067FF4C5AE50EA41047FF463
:100960000DAF52EA43057FF4EBAE12E74FF0FF3CC8
:1009700006E000BF4FF0010C02E000BF4FF0010C99
:100980004DF804CD4FEA410C7FEA6C5C4FEA430C12
:1009900018BF7FEA6C5C1BD001B050EA410C0CBF61
:1009A00052EA430C91EA030F02BF90EA020F0020C3
:1009B000704710F1000F91EA030F58BF994208BF2A
:1009C00090422CBFD8176FEAE37040F001007047E7
:1009D0004FEA410C7FEA6C5C02D150EA013C07D13E
:1009E0004FEA430C7FEA6C5CD6D152EA033CD3D089
:1009F0005DF8040B704700BF8446104662468C4683
:100A00001946634600E000BF01B5FFF7B7FF0028B5
:100A100048BF10F1000F01BD4DF808EDFFF7F4FFDE
:100A20000CBF012000205DF808FB00BF4DF808ED69
:100A3000FFF7EAFF34BF012000205DF808FB00BF8C
:100A40004DF808EDFFF7E0FF94BF012000205DF8AE
:100A500008FB00BF4DF808EDFFF7CEFF94BF012063
:100A600000205DF808FB00BF4DF808EDFFF7C4FF5C
:100A700034BF012000205DF808FB00BF4FEA410CA5
:100A80007FEA6C5C02D150EA013C0AD14FEA430C88
:100A90007FEA6C5C02D152EA033C02D14FF00000C5
:100AA00070474FF0010070474FEA410212F5001203
:100AB00015D211D56FF47873B3EB625212D94FEAA5
:100AC000C12343F0004343EA505311F0004F23FA8F
:100AD00002F018BF404270474FF00000704750EAE4
:100AE000013005D111F0004008BF6FF000407047A1
:100AF0004FF00000704700BF4FEA4102B2F1E043FF
:100B000024BFB3F5001CDCF1FE5C0DD901F0004CF4
:100B10004FEAC0024CEA5070B2F1004F40EB830044
:100B200008BF20F00100704711F0804F21D113F170
:100B30003872BCBF01F00040704741F480114FEAA9
:100B40005252C2F11802C2F1200C10FA0CF320FA32
:100B500002F018BF40F001004FEAC1234FEAD3234F
:100B600003FA0CFC40EA0C0023FA02F34FEA4303B9
:100B7000CCE77FEA625307D150EA01331EBF4FF042
:100B8000FE4040F44000704701F0004040F0FE405D
:100B900040F40000704700BF53B94AB9002908BFAC
:100BA00000281CBF4FF0FF314FF0FF3000F00CB8B1
:100BB000ADF1080C6DE904CE07F0BCFCDDF804E0F3
:100BC000DDE9022304B07047704700BF0000000059
:100BD00001F0FF01102A2BDB10F0070F08D010F8EE
:100BE000013B013A8B422DD010F0070F42B3F6D1F2
:100BF000F0B441EA012141EA014122F007047FF00B
:100C000000070023F0E80256083C85EA010586EA61
:100C1000010685FA47F5A3FA87F586FA47F6A5FA9D
:100C200087F68EB9EED1F0BC01F0FF0102F00702A9
:100C300032B110F8013B013A83EA010313B1F8D154
:100C40000020704701387047002D06BF3546033835
:100C5000073815F0010F07D1013015F4807F02BF6E
:100C6000013015F4C03F0130F0BC0138704700BFBF
:100C7000034613F8012B002AFBD1181A01387047DC
:100C80000348044B834202D0034B03B1184770471B
:100C90006002002060020020000000000548064BB2
:100CA0001B1AD90F01EBA301491002D0034B03B16A
:100CB000184770476002002060020020000000001A
:100CC00010B5064C237843B9FFF7DAFF044B13B194
:100CD0000448AFF300800123237010BD60020020A0
:100CE00000000000C8B0000808B5054B1BB105495D
:100CF0000548AFF30080BDE80840FFF7CFBF00BF55
:100D00000000000064020020C8B0000880B483B076
:100D100000AF78607B681B6843F001027B681A6053
:100D200000BF0C37BD465DF8047B704780B483B0CC
:100D300000AF78607B681B6823F001027B681A6053
:100D400000BF0C37BD465DF8047B704780B483B0AC
:100D500000AF78607B681B6803F00103012B0CBFB8
:100D600001230023DBB218460C37BD465DF8047B37
:100D7000704780B483B000AF78607B685B6903F034
:100D80008003802B0CBF01230023DBB218460C37F5
:100D9000BD465DF8047B704780B483B000AF7860D7
:100DA0007B685B6903F00403042B0CBF0123002361
:100DB000DBB218460C37BD465DF8047B704780B443
:100DC00083B000AF78607B685B6903F04003402B21
:100DD0000CBF01230023DBB218460C37BD465DF87B
:100DE000047B704780B483B000AF78607B685B6938
:100DF00003F00103012B0CBF01230023DBB21846D3
:100E00000C37BD465DF8047B704780B483B000AFFB
:100E100078607B685B6903F00203022B0CBF01233F
:100E20000023DBB218460C37BD465DF8047B7047E3
:100E300080B483B000AF78607B685B6903F4806343
:100E4000B3F5806F0CBF01230023DBB218460C37CB
:100E5000BD465DF8047B704780B483B000AF786016
:100E60007B685B6903F01003102B0CBF0123002388
:100E7000DBB218460C37BD465DF8047B704780B482
:100E800083B000AF78607B685B6903F48073B3F56F
:100E9000807F0CBF01230023DBB218460C37BD4610
:100EA0005DF8047B704780B483B000AF78607B68E6
:100EB0005B6903F40073B3F5007F0CBF01230023CB
:100EC000DBB218460C37BD465DF8047B704780B432
:100ED00085B000AF78607B685B69FB60FB687B680E
:100EE0009B69FB60FB6800BF1437BD465DF8047B5F
:100EF000704780B483B000AF78607B685B6923F48F
:100F000080627B685A6100BF0C37BD465DF8047B88
:100F1000704780B485B000AF78607B685B69FB6028
:100F2000FB687B681B6843F001027B681A6000BFA6
:100F30001437BD465DF8047B704780B483B000AFC2
:100F400078607B685B6923F480727B685A6100BFBC
:100F50000C37BD465DF8047B704780B483B000AFAA
:100F600078607B685B6923F400727B685A6100BF1C
:100F70000C37BD465DF8047B704780B483B000AF8A
:100F800078607B681B6843F400427B681A6000BF8E
:100F90000C37BD465DF8047B704780B483B000AF6A
:100FA00078607B681B6823F400427B681A6000BF8E
:100FB0000C37BD465DF8047B704780B483B000AF4A
:100FC000786039607B681B6823F480623B681A4351
:100FD0007B681A6000BF0C37BD465DF8047B704724
:100FE00080B483B000AF78607B681B6843F4807284
:100FF0007B681A6000BF0C37BD465DF8047B704704
:1010000080B483B000AF78607B681B6843F40072E3
:101010007B681A6000BF0C37BD465DF8047B7047E3
:1010200080B483B000AF78607B681B6843F40062D3
:101030007B681A6000BF0C37BD465DF8047B7047C3
:1010400080B483B000AF78607B681B6823F40062D3
:101050007B681A6000BF0C37BD465DF8047B7047A3
:1010600080B483B000AF78607B681B69DBB2184640
:101070000C37BD465DF8047B704780B483B000AF89
:1010800078600B46FB707B681B6923F0FF02FB78DE
:101090001A437B681A6100BF0C37BD465DF8047BBC
:1010A000704780B584B000AF78607B68002B27D094
:1010B0007B689B691846FFF749FE03467B817B6886
:1010C0009B691846FFF732FE7B689B691846FFF75D
:1010D00054FF0023FB6003E000BFFB680133FB60AB
:1010E000FB68632BF8DD7B689B691846FFF755FFAB
:1010F0007B89002B04D07B689B691846FFF706FEAE
:1011000000BF1037BD4680BD80B584B000AF7860A9
:1011100039607B68002B1FD03B68002B1CD07B689C
:10112000BB60BB689B69254A934202D1244BFB609C
:1011300014E0BB689B69234A934202D1224BFB60B7
:101140000CE0BB689B69214A934202D1204BFB60B3
:1011500004E00023FB6001E00023FB60FB68002B40
:1011600026D0BB689A69FB689A61BB68DA68FB683D
:10117000DA60BB681A69FB681A61FB6810221A60A2
:10118000FB6800225A60FB6820229A60FB680022FC
:101190005A613B68FA681A60FB689B694FF480618A
:1011A0001846FFF70AFFFB689B691846FFF7AEFD7C
:1011B0003B6818461037BD4680BD00BF0054004054
:1011C0007C0200200058004098020020005C004093
:1011D000B402002080B584B000AF78607B68002B3B
:1011E00036D07B681B68FB607B689B691846FFF7FD
:1011F0001FFE0346012B08D17B689B691846FFF749
:1012000078FEFB6843F00403FB607B689B6918462B
:10121000FFF749FE0346012B08D17B689B691846FE
:10122000FFF79BFEFB6843F00203FB607B689B6952
:101230001846FFF724FE0346012B0CD17B689B69FF
:101240001846FFF77AFEFB6843F00803FB6002E0F4
:101250004FF48073FB60FB6818461037BD4680BDB5
:1012600080B586B000AFF860B9607A60FB68002B8B
:1012700028D0FB689A69BB681046984778617B69FB
:10128000002B21D17B68002B1ED004F05BFE38615F
:1012900008E0FB689A69BB681046984778617B69EB
:1012A000002B08D104F04EFE02463B69D31A7A683F
:1012B0009A42EED200E000BF7B69002B04D10223EA
:1012C0007B6101E000237B617B6918461837BD46CE
:1012D00080BD000080B588B000AFF8607A603B60E8
:1012E0000B467B811023FB61FB68002B00F0B28072
:1012F000FB681B68002B00F0AD80FB681B681B6857
:10130000102B40F0A780FB681B687B617B69012282
:101310001A607B6920229A600023FB617B699B69CC
:101320001846FFF75DFE3A6B53497869FFF798FF5F
:101330000346012B08D07869FFF74CFF034643F4BE
:101340000073FA691343FB61FB69002B5CD17B6975
:101350009A697B89DBB25B00DBB219461046FFF766
:101360008CFE3A6B45497869FFF77AFF0346012BFB
:1013700005D17B699B691846FFF7A9FD08E07869EC
:10138000FFF728FF034643F40073FA691343FB6138
:101390000023BB611DE03A6B39497869FFF760FFB4
:1013A0000346012B09D17B6998697A68BB691344AC
:1013B0001B781946FFF761FE08E07869FFF70AFF1E
:1013C000034643F40073FA691343FB61BB690133BD
:1013D000BB61FB69002B03D1BA693B689A42DAD33F
:1013E000FB69002B10D13A6B25497869FFF738FF6C
:1013F0000346012B08D07869FFF7ECFE034643F45F
:101400000073FA691343FB61FB69002B03D197F862
:101410002830012B11D07B699B691846FFF7F0FD3E
:101420007B699B691846FFF717FD0346012B04D122
:101430007B699B691846FFF76CFDFB69002B02D0A6
:101440007869FFF72EFE7B69FA695A607B69102282
:101450001A600BE0FB68002B06D0FB681B68002BB2
:1014600002D04FF4807300E00123FB61FB69184652
:101470002037BD4680BD00BFE50D00080B0E0008FB
:10148000730D000890B589B000AFF8607A603B60DA
:101490000B467B81FB68002B00F07681FB681B68A4
:1014A000002B00F07181FB681B681B68102B40F05B
:1014B0006B81FB681B687B617B6901221A607B6919
:1014C00020229A600023FB617B699B694FF4806155
:1014D0001846FFF772FD7B699B691846FFF780FD90
:1014E000BA6BA5497869FFF7BBFE0346012B08D00C
:1014F0007869FFF76FFE034643F40073FA691343FC
:10150000FB61FB69002B40F009817B699A697B894B
:101510005BB25B005BB243F001035BB2DBB2194626
:101520001046FFF7AAFDBA6B94497869FFF798FE59
:101530000346012B40F0E9803B68002B00F0DF8080
:101540003B68012B06D17B699B6900211846FFF798
:1015500034FD0DE03B68022B0AD17B699B690021B9
:101560001846FFF72AFD7B699B691846FFF758FD6F
:101570007B699B691846FFF7AAFC3B68BB6120E0CA
:10158000BA6B7F497869FFF76BFE0346012B0CD1DC
:101590007B6999693A68BB69D31A7A68D418084696
:1015A000FFF75EFD0346237008E07869FFF712FE3F
:1015B000034643F40073FA691343FB61BB69013BC3
:1015C000BB61FB69002B02D1BB69022BD8D8FB6938
:1015D000002B40F0A380BB69022B65D17B699B691E
:1015E00000211846FFF7E9FC7B699B691846FFF765
:1015F00017FDBA6B63497869FFF732FE0346012B8A
:1016000043D197F83030012B04D07B699B69184691
:10161000FFF7F6FCBA6B5A497869FFF721FE0346DB
:10162000012B28D17B6999693B68023B7A68D41801
:101630000846FFF715FD03462370BA6B50497869D9
:10164000FFF70EFE0346012B0BD17B6999693B68BE
:10165000013B7A68D4180846FFF702FD0346237061
:101660001CE07869FFF7B6FD034643F40073FA699E
:101670001343FB6112E07869FFF7ACFD034643F4C6
:101680000073FA691343FB6108E07869FFF7A2FD74
:10169000034643F40073FA691343FB617B699B695A
:1016A0001846FFF7CDFC39E0BB69012B36D197F81E
:1016B0003030012B04D07B699B691846FFF7A0FCF2
:1016C000BA6B2F497869FFF7CBFD0346012B0CD18C
:1016D0007B6999693A68BB69D31A7A68D418084655
:1016E000FFF7BEFC0346237018E07869FFF772FD30
:1016F000034643F40073FA691343FB610EE07B6910
:101700009B691846FFF77CFC08E07869FFF762FDEB
:10171000034643F40073FA691343FB61FB69002B32
:1017200011D07B699B691846FFF76AFC7B699B694E
:101730001846FFF791FB0346012B04D17B699B6997
:101740001846FFF7E6FB7B699B694FF480611846FA
:10175000FFF733FC7B699B691846FFF771FCFB6957
:10176000002B02D07869FFF79CFC7B69FA695A600C
:101770007B6910221A6013E0E50D00080B0E0008CB
:10178000BF0D0008990D0008FB68002B06D0FB6810
:101790001B68002B02D04FF4807300E00123FB6133
:1017A000FB6918462437BD4690BD00BF80B400AF2A
:1017B00000BFBD465DF8047B7047000000000000DC
:1017C00090B591B000AFF860B9607A603B600223D9
:1017D000BB6307F138031946F86800F08DF903463A
:1017E000FB8707F138031946F86800F06DF90346E6
:1017F00087F83D307B6DFA8F1A80FB8F42F2200212
:1018000093425DD197F83D30242B59D107F138032D
:101810001946F86800F0EAF9F0EE407AC7ED057A6B
:1018200007F138031946F86800F0E0F9F0EE407A65
:10183000C7ED067A07F138031946F86800F0D6F9C3
:10184000F0EE407AC7ED077A07F138031946F868D9
:1018500000F0CCF9F0EE407AC7ED087A07F13803D2
:101860001946F86800F0C2F9F0EE407AC7ED097A3F
:1018700007F138031946F86800F0B8F9F0EE407A3D
:10188000C7ED0A7A07F138031946F86800F0AEF997
:10189000F0EE407AC7ED0B7A07F138031946F86885
:1018A00000F0A4F9F0EE407AC7ED0C7A07F13803A6
:1018B0001946F86800F09AF9F0EE407AC7ED0D7A13
:1018C000FB691846FEF7E8FD7DA3D3E90023FEF788
:1018D0003BFE02460B4610461946FFF70DF902463D
:1018E000BB681A60BB6A1846FEF7D6FD74A3D3E93D
:1018F0000023FEF729FE02460B4610461946BB6838
:101900001C1DFFF7F9F8034623607B6B1846FEF7B2
:10191000C3FD6BA3D3E90023FEF716FE02460B4678
:1019200010461946BB6803F10804FFF7E5F80346C3
:10193000236007F138031946F86800F0DDF8034624
:10194000FB8707F138031946F86800F0BDF8034635
:1019500087F83D30FB8F42F21002934234D197F862
:101960003D30102B30D107F138031946F86800F0EC
:101970003DF9F0EE407A7B68C3ED007A7B681C1D70
:1019800007F138031946F86800F030F9F0EE407AB4
:10199000C4ED007A7B6803F1080407F138031946A7
:1019A000F86800F023F9F0EE407AC4ED007A7B6825
:1019B00003F10C0407F138031946F86800F016F932
:1019C000F0EE407AC4ED007A07F138031946F86862
:1019D00000F092F80346FB8707F138031946F868D0
:1019E00000F072F8034687F83D30FB8F48F2200282
:1019F000934227D197F83D300C2B23D107F13803C0
:101A00001946F86800F0F2F8F0EE407A3B68C3ED52
:101A1000007A3B681C1D07F138031946F86800F08E
:101A2000E5F8F0EE407AC4ED007A3B6803F1080473
:101A300007F138031946F86800F0D8F8F0EE407A5C
:101A4000C4ED007A07F138031946F86800F054F83D
:101A50000346FB8707F138031946F86800F034F8AD
:101A6000034687F83D30FB8F42F23002934223D188
:101A700007F138031946F86800F0B8F8F0EE407A3C
:101A80003B6DC3ED007A3B6D1C1D07F13803194611
:101A9000F86800F0ABF8F0EE407AC4ED007A3B6DE8
:101AA00003F1080407F138031946F86800F09EF8BE
:101AB000F0EE407AC4ED007A00BF4437BD4690BDD9
:101AC0001F85EB51B89E23C080B485B000AF78600D
:101AD00039603B681B681A467B6813441B78FB73AC
:101AE0003B681B685A1C3B681A60FB7B184614371E
:101AF000BD465DF8047B704780B485B000AF786068
:101B000039600023FB813B681B681A467B681344DD
:101B10001B781BB21B021AB2B7F90E3013431BB26B
:101B2000FB813B681B685A1C3B681A603B681B685A
:101B30001A467B6813441B781A46FB891343FB81C2
:101B40003B681B685A1C3B681A60FB8918461437AF
:101B5000BD465DF8047B704780B485B000AF786007
:101B600039600023FB603B681B681A467B6813449E
:101B70001B781B06FA681343FB603B681B685A1C02
:101B80003B681A603B681B681A467B6813441B78E5
:101B90001B04FA681343FB603B681B685A1C3B68D4
:101BA0001A603B681B681A467B6813441B781B024B
:101BB000FA681343FB603B681B685A1C3B681A6059
:101BC0003B681B681A467B6813441B781A46FB68FF
:101BD0001343FB603B681B685A1C3B681A60FB6838
:101BE00018461437BD465DF8047B704780B584B055
:101BF00000AF7860396039687868FFF7ADFF034659
:101C0000FB60FB68BB60BB6807EE903AB0EE670A0A
:101C10001037BD4680BD000080B400AF044BDB68C8
:101C20001B0A03F007031846BD465DF8047B7047A6
:101C300000ED00E080B483B000AF0346FB7197F97C
:101C40000730002B0BDBFB7903F01F02074997F9E4
:101C500007305B09012000FA02F241F8232000BF9F
:101C60000C37BD465DF8047B704700BF00E100E023
:101C700080B483B000AF03463960FB7197F9073039
:101C8000002B0ADB3B68DAB20C4997F907301201E6
:101C9000D2B20B4483F800230AE03B68DAB2084969
:101CA000FB7903F00F03043B1201D2B20B441A7606
:101CB00000BF0C37BD465DF8047B704700E100E0D3
:101CC00000ED00E080B489B000AFF860B9607A60E0
:101CD000FB6803F00703FB61FB69C3F10703042BF7
:101CE00028BF0423BB61FB690433062B02D9FB69BF
:101CF000033B00E000237B614FF0FF32BB6902FA37
:101D000003F3DA43BB681A407B699A404FF0FF3116
:101D10007B6901FA03F3D9437B680B4013431846F0
:101D20002437BD465DF8047B7047000080B483B063
:101D300000AF786039600C4A3B6813441B781A4640
:101D40007B6813441B6808493A680A4412781146B4
:101D50007A680A4443F00103136000BF0C37BD46A4
:101D60005DF8047B704700BFE0B0000880B485B028
:101D700000AFF860B9607A600D4ABB6813441B7805
:101D80001A46FB6813445B681B0C1B040849BA68BD
:101D90000A4412781146FA680A4411467A681343D5
:101DA0004B6000BF1437BD465DF8047B704700BF31
:101DB000E0B0000880B485B000AFF860B9607A6028
:101DC0003B60BB69402B14D1174ABB6813441B7896
:101DD0001A46FB6813441A467B68D360124ABB68F4
:101DE00013441B781A46FB6813441A463B689360F9
:101DF00013E00D4ABB6813441B781A46FB68134472
:101E00001A467B689360084ABB6813441B781A46DD
:101E1000FB6813441A463B68D36000BF1437BD46C5
:101E20005DF8047B704700BFE0B0000880B483B069
:101E300000AF786039600C4A3B6813441B781A463F
:101E40007B6813441B6808493A680A4412781146B3
:101E50007A680A4443F01003136000BF0C37BD4694
:101E60005DF8047B704700BFE0B0000880B483B029
:101E700000AF786039600C4A3B6813441B781A46FF
:101E80007B6813441B6808493A680A441278114673
:101E90007A680A4423F01003136000BF0C37BD4674
:101EA0005DF8047B704700BFE0B0000880B483B0E9
:101EB00000AF78607B68DB6843F400527B68DA60CF
:101EC00000BF0C37BD465DF8047B704780B483B01B
:101ED00000AF78607B68DB6823F400527B68DA60CF
:101EE00000BF0C37BD465DF8047B704780B483B0FB
:101EF00000AF78607B681B6803F08003802B0CBF09
:101F000001230023DBB218460C37BD465DF8047B85
:101F1000704780B489B000AF78607B680C33FB6099
:101F2000FB6853E8003FBB60BB6843F02003FB61E4
:101F30007B680C33FA69BA617B617969BA6941E8F7
:101F400000233B613B69002BE7D100BF00BF243772
:101F5000BD465DF8047B704780B489B000AF7860FF
:101F60007B680C33FB60FB6853E8003FBB60BB68D9
:101F700043F08003FB617B680C33FA69BA617B61D3
:101F80007969BA6941E800233B613B69002BE7D1DD
:101F900000BF00BF2437BD465DF8047B704780B4A6
:101FA00089B000AF78607B680C33FB60FB6853E856
:101FB000003FBB60BB6843F48073FB617B680C33FC
:101FC000FA69BA617B617969BA6941E800233B61CA
:101FD0003B69002BE7D100BF00BF2437BD465DF849
:101FE000047B704780B489B000AF78607B6814339D
:101FF000FB60FB6853E8003FBB60BB6843F0010334
:10200000FB617B681433FA69BA617B617969BA69EB
:1020100041E800233B613B69002BE7D100BF00BFD3
:102020002437BD465DF8047B704780B489B000AFAB
:1020300078607B680C33FB60FB6853E8003FBB6053
:10204000BB6823F02003FB617B680C33FA69BA613B
:102050007B617969BA6941E800233B613B69002BE8
:10206000E7D100BF00BF2437BD465DF8047B704751
:1020700080B489B000AF78607B680C33FB60FB688C
:1020800053E8003FBB60BB6823F08003FB617B68C3
:102090000C33FA69BA617B617969BA6941E8002356
:1020A0003B613B69002BE7D100BF00BF2437BD4631
:1020B0005DF8047B704780B489B000AF78607B68BE
:1020C0000C33FB60FB6853E8003FBB60BB6823F444
:1020D0008073FB617B680C33FA69BA617B61796953
:1020E000BA6941E800233B613B69002BE7D100BF9F
:1020F00000BF2437BD465DF8047B704780B489B0CB
:1021000000AF78607B681433FB60FB6853E8003FE6
:10211000BB60BB6823F00103FB617B681433FA6981
:10212000BA617B617969BA6941E800233B613B6927
:10213000002BE7D100BF00BF2437BD465DF8047B0C
:10214000704780B489B000AF78607B681433FB605F
:10215000FB6853E8003FBB60BB6843F04003FB6192
:102160007B681433FA69BA617B617969BA6941E8BD
:1021700000233B613B69002BE7D100BF00BF243740
:10218000BD465DF8047B704780B489B000AF7860CD
:102190007B681433FB60FB6853E8003FBB60BB689F
:1021A00023F04003FB617B681433FA69BA617B61F9
:1021B0007969BA6941E800233B613B69002BE7D1AB
:1021C00000BF00BF2437BD465DF8047B704780B474
:1021D00089B000AF78607B681433FB60FB6853E81C
:1021E000003FBB60BB6843F08003FB617B68143336
:1021F000FA69BA617B617969BA6941E800233B6198
:102200003B69002BE7D100BF00BF2437BD465DF816
:10221000047B704780B489B000AF78607B6814336A
:10222000FB60FB6853E8003FBB60BB6823F08003A2
:10223000FB617B681433FA69BA617B617969BA69B9
:1022400041E800233B613B69002BE7D100BF00BFA1
:102250002437BD465DF8047B704780B483B000AF7F
:1022600078607B68043318460C37BD465DF8047B04
:10227000704780B483B000AF78600B46FB70FA788B
:102280007B685A6000BF0C37BD465DF8047B704721
:1022900080B485B000AF786039607B685B6B3A686A
:1022A0001344FB607B685A6B7B689B6B9A4204D239
:1022B0007B689B6BFA689A4212D27B685A6B7B6888
:1022C0009B6B9A420ED37B689B6AFA689A4209D349
:1022D0007B689B6AFA68D21A7B689B6B9A4201D32F
:1022E000012300E00023DBB218461437BD465DF839
:1022F000047B704780B586B000AFF860B9607A6043
:102300003B607968F868FFF7C3FF0346002B21D0D4
:102310003B68002B1CD003F015FE786100BF796884
:10232000F868FFF7B5FF0346002B07D00121786955
:1023300001F060FB02463B689342F0D201217869CC
:1023400001F058FB02463B68934203D2012347E069
:10235000012345E0FB685A6B7B681A44FB689B6A63
:102360009A4223D9FB689A6AFB685B6BD31A3B617C
:10237000FB681A6AFB685B6B13443A69B9681846D4
:1023800007F011F8FB685A6B7B681A44FB689B6A7C
:10239000D21AFB685A63FB68186A3B69BA68D1189D
:1023A000FB685B6B1A4606F0FEFF0FE0FB681A6ADB
:1023B000FB685B6B13447A68B968184606F0F3FF54
:1023C000FB685A6B7B681A44FB685A63FB685A6B5C
:1023D000FB689B6A9A4202D1FB6800225A63002381
:1023E00018461837BD4680BD80B584B000AF786010
:1023F0007B681B681846FFF779FD0346FB73FB7B80
:10240000012B29D17B689A6B7B685B6B9A421BD04E
:102410007B6818687B681A6A7B689B6B13441B781F
:102420001946FFF726FF7B689B6B5A1C7B689B6AEB
:102430009A4203D17B6800229A630DE07B689B6B14
:102440005A1C7B689A6307E07B681B681846FFF795
:102450000FFE7B6800229A74FB7B18461037BD463E
:1024600080BD000080B500AF0248FFF7BDFF00BF90
:1024700080BD00BFD0020020B0B584B002AF78604C
:102480007B685C687B681B7C1D467B681B68184604
:10249000FFF7E3FE02467B68DB69194600230093E1
:1024A0000B4629462046FFF785FC7B6858687B6809
:1024B0001B7C19467B685B6A1A46FFF757FC7B68F2
:1024C0005A687B681B7C19461046FFF7AFFC7B6897
:1024D0001B681846FFF735FE7B681B685A697B68E6
:1024E0001B6842F040025A617B685A687B681B7C1B
:1024F00019461046FFF71AFC00BF0837BD46B0BDAD
:10250000F0B585B002AF78607B689C687B685B7CC7
:102510001D467B681B6A1E467B681B681846FFF7D2
:102520009CFE034640220092324629462046FFF791
:1025300041FC7B689A687B685B7C19461046FFF714
:1025400075FC7B681B681846FFF741FE00BF0C371F
:10255000BD46F0BD80B584B000AF78607B681B6875
:102560001A46604B9A4202D15F4BFB6002E00023A7
:10257000FB6000BFFB68002B00F0AF80FB685A7D5A
:102580007B685B7D1343DAB2FB685A75FB689A7D02
:102590007B689B7D1343DAB2FB689A757B681A6887
:1025A000FB681A60FB6800221A83FB6800225A83CA
:1025B000FB681B681846FFF789FC7B685B7D03F0AE
:1025C0000103002B3CD07B685A6AFB685A627B6827
:1025D000DA69FB68DA61FB680022DA62FB680022D4
:1025E0001A637B681A7DFB681A75FB68002283F802
:1025F0003C20FB689B7D03F01003002B15D07B680B
:102600005A68FB685A607B681A7CFB681A74F86821
:10261000FFF732FFFB681B681846FFF7E3FCFB6817
:102620001B681846FFF7BBFC0AE0FB689B7D03F0C4
:102630000403002B04D0FB681B681846FFF769FCF5
:102640007B685B7D03F00203002B27D07B689A6ACE
:10265000FB689A627B681A6AFB681A62FB68002250
:102660005A63FB6800229A63FB6800229A74FB6835
:102670000022DA74FB689B7D03F02003002B0DD051
:102680007B689A68FB689A607B685A7CFB685A741E
:10269000FB680022DA60F868FFF732FFFB681B680E
:1026A0001846FFF703FC7B681B681A460D4B9A42DD
:1026B00010D1FFF7B1FA0346002200211846FFF7B8
:1026C00001FB034619462720FFF7D2FA2720FFF720
:1026D000B1FA02E00023FB6000BFFB681846103728
:1026E000BD4680BD00480040D002002080B584B0C7
:1026F00000AFF860B9607A603B60BB6900221A6085
:10270000FB685B8B03F08003002B01D0802353E038
:102710007B68002B4FD0FB685B8B43F080039AB241
:10272000FB685A833B687A68B968F868FFF7E2FD8E
:102730000346012B08D1FB685B8B23F080039AB220
:10274000FB685A83402337E0FB689B7C002B28D131
:10275000FB681868FB681A6AFB689B6B13441B785C
:102760001946FFF786FDFB689B6B5A1CFB689B6A4A
:102770009A4203D1FB6800229A6304E0FB689B6BDA
:102780005A1CFB689A63FB689A6BFB685B6B9A4206
:1027900007D0FB6801229A74FB681B681846FFF794
:1027A000DBFBBB697A681A60FB685B8B23F08003F4
:1027B0009AB2FB685A83002318461037BD4680BD85
:1027C00080B582B000AF78607B681B681846FFF761
:1027D0007DFB7B689B7D03F02003002B0DD07B6885
:1027E0009A687B685B7C19461046FFF73FFB7B6865
:1027F0001B681846FFF70EFD0AE07B689B7D03F01F
:102800000803002B04D07B681B681846FFF730FCD8
:102810007B689B7D03F01003002B17D07B681B683F
:102820001846FFF76BFC7B681B681846FFF743FCF4
:102830007B685A687B681B7C19461046FFF716FBBD
:102840007B681B681846FFF79FFC0AE07B689B7D4E
:1028500003F00403002B04D07B681B681846FFF7C5
:10286000E4FB00BF0837BD4680BD80B400AF00BFA9
:10287000BD465DF8047B704780B584B000AFF8605A
:10288000B9607A603B603B68AA221A703B680133EA
:102890000C22F968184606F086FD3B680D330C22C1
:1028A000B968184606F07FFD3B681933082279683D
:1028B000184606F078FDFB685B6807EE903AB0EECC
:1028C000670A1037BD4680BD80B500AF0F4B1B783F
:1028D0005A1CD1B20D4A1170002B09D00C4B0122A9
:1028E0001A600A4B1B78013BDAB2084B1A700BE0F6
:1028F00062B600BF00F040FA72B600BF034B1B780F
:10290000013BDAB2014B1A7080BD00BF14030020F6
:102910001003002080B584B000AF786039602F4B81
:10292000FB602F4BBB602F4B00221A702E4B0022F6
:102930001A7001DF03F0D0FA01F0DCFA01F032F88E
:1029400001F0B0FC01F014FE02F026FA02F04CF89F
:1029500001F09AFE01F0F0FE02F09EFA234B1B6894
:1029600000221A6000F0E4FE72B600BF97ED030A81
:1029700001F0D6F81D4B1B681B68002B0CBF012310
:102980000023DBB21A46184B1A7062B600BF62B65B
:1029900000BF15E0154B1B681B68002B14BF0123FB
:1029A0000023DBB21A460F4B1A700E4B1B78DBB2BA
:1029B000002B05D00E4B1B680D4A23F0010313605A
:1029C000094B1B78DBB2002BE4D100F09BFF72B601
:1029D00000BF002318461037BD4680BDCDCCCC3D8E
:1029E000000034431503002016030020E8B000085F
:1029F00010E000E080B586B000AF4023FB604FF0F0
:102A000000024FF00003C7E90423FB68202B0BD121
:102A100000F020F810EE103A1846FDF73DFD024692
:102A20000B46C7E9042307E0094B7B6000233B60AA
:102A3000D7E90023C7E90423D7E9042343EC172B84
:102A4000B0EE470AF0EE670A1837BD4680BD00BFFA
:102A50000000F07F80B483B000AF4FF0FF437B6095
:102A60007B6807EE903AB0EE670A0C37BD465DF81A
:102A7000047B704780B586B000AF4023FB604FF009
:102A800000024FF00003C7E90423FB68202B0BD1A1
:102A900000F020F810EE103A1846FDF7FDFC024653
:102AA0000B46C7E9042307E0094B7B6000233B602A
:102AB000D7E90023C7E90423D7E9042343EC172B04
:102AC000B0EE470AF0EE670A1837BD4680BD00BF7A
:102AD0000000F0FF80B483B000AF064B7B607B68E2
:102AE00007EE903AB0EE670A0C37BD465DF8047BFE
:102AF000704700BF000080FF80B586B000AF402364
:102B0000FB604FF000024FF00003C7E90423FB68AD
:102B1000202B0BD100F020F810EE103A1846FDF7EC
:102B2000BBFC02460B46C7E9042307E0094B7B6068
:102B300000233B60D7E90023C7E90423D7E9042336
:102B400043EC172BB0EE470AF0EE670A1837BD4684
:102B500080BD00BF0000F8FF80B483B000AF4FF02D
:102B600000037B60054B7B607B6807EE903AB0EE1C
:102B7000670A0C37BD465DF8047B70470000C0FF54
:102B800080B582B000AF7860FFF7B6FFB0EE407A54
:102B9000F0EE607A164B83ED007BFFF7DDFFF0EE81
:102BA000407A144BC3ED007AFFF724FFB0EE407A71
:102BB000F0EE607A104B83ED007BFFF74BFFF0EEF9
:102BC000407A0E4BC3ED007AFFF754FFB0EE407A27
:102BD000F0EE607A0A4B83ED007BFFF77BFFF0EEAF
:102BE000407A084BC3ED007A00BF0837BD4680BD70
:102BF00028030020380300201803002030030020A1
:102C0000200300203403002080B483B000AF87EDA0
:102C1000010A0E4BD3ED007A97ED017AB4EE677A94
:102C2000F1EE10FA09D00A4BD3ED007A97ED017A54
:102C3000B4EE677AF1EE10FA01D1012300E000232F
:102C400018460C37BD465DF8047B70473003002002
:102C50003403002080B485B000AF87ED010A7B68A3
:102C6000FB60FB6803F0FF43B3F1FF4F06D1FB6845
:102C7000C3F31603002B01D0012300E00023DBB2D5
:102C800018461437BD465DF8047B704780B58AB09E
:102C900000AF78607B6800221A727B6801225A605C
:102CA000104B3B6200237B610023BB617B680022E9
:102CB0001A617B6800225A617B6800229A617B68F6
:102CC00010337B6207F10803796A1846FEF71CFA95
:102CD00002467B68DA607B6801221A7200BF2837DF
:102CE000BD4680BD0054004080B58AB000AF78601A
:102CF0000F4B3B6200237B610023BB617B6800229A
:102D00001A617B6800225A617B6800229A617B68A5
:102D100010337B6207F10803796A1846FEF7F4F96D
:102D200002467B68DA6000BF2837BD4680BD00BF21
:102D30000058004080B592B000AF78607B681033D7
:102D4000BB6202237B770823BB770A4BBB6000235F
:102D50003B6100237B7680233B6307F10803184621
:102D6000FFF7F8FB02467B68DA6000BF4837BD46D4
:102D700080BD00BF0048004080B5D8B004AF07F563
:102D8000A873A3F24D1304221A702E4BD3F8F0004F
:102D9000FA1C0123029301230193012300930123D1
:102DA0006B21FEF797FA0346C7F8D430D7F8D43032
:102DB000002B0ED1234BD3F8F0003A1D01230293D0
:102DC000002301930023009304236B21FEF75AFB99
:102DD00005E007F5A873A3F5A67300229A7007F51E
:102DE000A873A3F5A6739B78002B78D007F5A8737A
:102DF000A3F24D1306221A70124BD3F8D400FA1C1A
:102E000001230293012301930123009301236B21EA
:102E1000FEF760FA0346C7F8D430D7F8D430002B59
:102E200012D1084BD3F8D40007F1740201230293A6
:102E300000230193002300935B236B21FEF722FB09
:102E400009E000BF6003002007F174035B2200214A
:102E5000184606F028FAE14B4FF000021A60DF4BEB
:102E60004FF000025A60DD4B4FF000029A604FF0C5
:102E70000003C7F8F0304FF00003C7F8F4304FF00C
:102E80000003C7F8F8304FF00003C7F8FC30D34B0D
:102E90004FF00002DA60D14B4FF000029A61CF4B45
:102EA0004FF000021A61CD4B4FF00002DA61CB4BBC
:102EB0004FF000025A61C94B4FF000021A62002322
:102EC000A7F8D23007F1F00207F1740007F1D2033E
:102ED0000193C34B0093C34BC049FEF771FCBF4B3A
:102EE00093ED067AC04BD3ED0F7A77EE677AC7ED94
:102EF000517ABA4B93ED077ABB4BD3ED107A77EE4C
:102F0000677AC7ED507AD7F84431C7F8E430D7F87C
:102F10004031C7F8E830B14B1B6AC7F8EC30B24B10
:102F200093ED187AD7ED517A27EE277AAE4BD3ED91
:102F3000197A67EE277AC7ED517AD7F84401FDF781
:102F4000ABFA02460B4643EC102B03F0EDFF53ECBB
:102F5000102B10461946FDF7CFFD0346C7F83C314C
:102F6000D7F84401FDF798FA02460B4643EC102BC4
:102F700003F096FF53EC102B10461946FDF7BCFDED
:102F80000346C7F8D830984B93ED187AD7ED507AAE
:102F900027EE277A944BD3ED197A67EE277AC7ED9F
:102FA000517AD7F84401FDF777FA02460B4643EC15
:102FB000102B03F0B9FF53EC102B10461946FDF708
:102FC0009BFD0346C7F83831D7F84401FDF764FA92
:102FD00002460B4643EC102B03F062FF53EC102B20
:102FE00010461946FDF788FD0346C7F8DC307E4BD6
:102FF00093ED187A7C4BD3ED177A27EE277A7A4B2C
:10300000D3ED197A67EE277AC7ED517AD7F84401E4
:10301000FDF742FA02460B4643EC102B03F084FF07
:1030200053EC102B10461946FDF766FD0346C7F812
:103030003431D7F84401FDF72FFA02460B4643EC32
:10304000102B03F02DFF53EC102B10461946FDF703
:1030500053FD0346C7F8E030604B93ED007A5F4BB9
:10306000D3ED007A27EE277A5C4BD3ED016A5B4BF8
:10307000D3ED017A66EEA77A37EE277A574BD3ED78
:10308000026A564BD3ED027A66EEA77A37EE277ABC
:10309000554BD3ED117A67EE277AC7ED527A97ED4B
:1030A000367AD7ED377A67EE277AC7ED4C7A97ED07
:1030B0004F7AD7ED4E7A67EE277AC7ED4B7A97EDC8
:1030C000387AD7ED4C7A27EE277AD7ED4B6AD7EDD1
:1030D0004D7A66EEA77A77EE677AC7ED507AD7ED2C
:1030E000367A97ED4E7A67EE277AC7ED4E7AD7EDAE
:1030F000377A97ED4F7A67EE277AC7ED4F7A97EDDB
:103100004E7AD7ED4D7A27EE277AD7ED386AD7ED8C
:103110004F7A66EEA77A77EE277AC7ED517A97ED68
:10312000387AD7ED4E7A27EE277AD7ED4F6AD7ED6A
:103130004D7A66EEA77A77EE677AC7ED4A7A97ED11
:103140004C7AD7ED4D7A27EE277AD7ED386AD7ED4E
:103150004B7A66EEA77A77EE277AC7ED4D7A224B47
:1031600093ED147AD7ED507A27EE277A1E4BD3EDE4
:10317000136AD7ED517A66EEA77A37EE277A1A4BA3
:10318000D3ED166AD7ED4A7A66EEA77A37EE277A3C
:10319000154BD3ED156AD7ED4D7A66EEA77A77EE2B
:1031A000677AC7ED497A104B93ED157AD7ED507ACF
:1031B00027EE277A0C4BD3ED166AD7ED517A66EEDF
:1031C000A77A37EE677A084BD3ED136AD7ED4A7AC0
:1031D00066EEA77A37EE277A08E000BF3C030020AE
:1031E000540300204803002000000020D64BD3EDFC
:1031F000146AD7ED4D7A66EEA77A77EE277AC7ED97
:10320000487AD14BD3ED1C7A97ED497A67EE277A4D
:10321000C7ED4C7ACD4BD3ED467A97ED4C7A77EEED
:10322000277AC7ED4F7AC84BD3ED1C7A97ED487AD1
:1032300067EE277AC7ED4B7AC44BD3ED477A97ED0B
:103240004B7A77EE277AC7ED4E7ABF4B93ED1A7A19
:10325000D7ED497A27EE277ABB4BD3ED1B7A27EEC1
:10326000277AB94BD3ED206AD7ED4F7A66EEA77A6D
:1032700037EE277AB44BD3ED216AB54BD3ED037A01
:1032800066EEA77A77EE277AC7ED367AAE4B93EDE6
:103290001A7AD7ED487A27EE277AAB4BD3ED1B7A13
:1032A00027EE277AA84BD3ED206AD7ED4E7A66EE4B
:1032B000A77A37EE277AA44BD3ED216AA44BD3ED3E
:1032C000047A66EEA77A77EE277AC7ED377A97ED1C
:1032D000367A9F4BD3ED027A67EE277AC7ED497AAB
:1032E0009B4B93ED017A984BD3ED127A27EE277A18
:1032F000D7ED376A964BD3ED027A66EEA77A37EEB2
:10330000677AB7EE006AD7ED526AC6EE267A67EEA4
:10331000277AC7ED367A8E4B93ED007A8A4BD3ED40
:10332000127A67EE277A97ED497A37EE677AB7EE29
:10333000006AD7ED526AC6EE267A67EE277AC7EDA5
:10334000377A814B93ED227AD7ED377A27EE277AB9
:103350007D4BD3ED007A67EE277A17EE900AFDF7E2
:103360009BF802460B4643EC102B03F025FE53EC72
:10337000102B10461946FDF7BFFB0346C7F848312E
:1033800097ED520AFFF766FC0346002B06D197ED36
:10339000520AFFF739FC0346002B04D04FF000031C
:1033A000C7F8483114E0D7F84801FDF775F8024630
:1033B0000B469FED631B43EC102B03F03BFD53ECDE
:1033C000102B10461946FDF797FB0346C7F8483106
:1033D000D7ED527AF5EEC07AF1EE10FA09D5D7EDB5
:1033E000527AF1EE677AFCEEE77A17EE903A5B429A
:1033F00005E0D7ED527AFCEEE77A17EE903AC7F87F
:103400001C31514B93ED237AD7ED367A27EE277A8C
:103410004D4BD3ED007A67EE277A17EE900AFDF751
:103420003BF802460B4643EC102B03F0C5FD53EC72
:10343000102B10461946FDF75FFB0346C7F84831CD
:1034400097ED520AFFF706FC0346002B06D197EDD5
:10345000520AFFF7D9FB0346002B04D04FF00003BC
:10346000C7F8483114E0D7F84801FDF715F80246CF
:103470000B469FED331B43EC102B03F0DBFC53ECAE
:10348000102B10461946FDF737FB0346C7F84831A5
:10349000D7ED527AF5EEC07AF1EE10FA09D5D7EDF4
:1034A000527AF1EE677AFCEEE77A17EE903A5B42D9
:1034B00005E0D7ED527AFCEEE77A17EE903AC7F8BE
:1034C00018310023C7F84C310DE007F5A873A3F5B8
:1034D0009272D7F84C31134400221A70D7F84C314D
:1034E0000133C7F84C31D7F84C31202BEDDD184BA8
:1034F000DB68C7F8D830164B1B69C7F8DC30144BB3
:103500005B69C7F8E030D7F81831C7F80031D7F851
:103510001C31C7F8043107F12C0307F5807207F15D
:10352000D80107F1E400FFF7A7F9074B9B69D7F82B
:1035300018219A420EDD044B9B69C7F8083118E048
:10354000000000000000F0410000002060030020A7
:103550003C030020744BDB69D7F818219A4204DA47
:10356000714BDB69C7F8083103E0D7F81831C7F8A9
:1035700008316D4B1B6AD7F81C219A4204DD6A4B57
:103580001B6AC7F80C310EE0674B5B6AD7F81C2149
:103590009A4204DA644B5B6AC7F80C3103E0D7F84F
:1035A0001C31C7F80C31604B9B6AC7F810315E4B79
:1035B0005B69C7F8143107F5847107F1080310221D
:1035C000184605F0F0FE07F5A873A3F59C730022DA
:1035D0001A700023C7F84C3114E0D7F84C3101338E
:1035E00007F5A872A2F5A471D7F84C210A44117806
:1035F00007F5A872A2F59C72D154D7F84C3101336B
:10360000C7F84C31D7F84C310F2BE6DD474BD3F8D8
:10361000B80007F11802022302930023019300234C
:10362000009311234221FDF755FE0023C7F84C31CA
:1036300015E007F5A873A3F59272D7F84C3113443F
:10364000197807F5A873A3F58072D7F84C311344A5
:103650000A461A70D7F84C310133C7F84C31D7F805
:103660004C31202BE5DD07F5A873A3F5807300220C
:1036700083F821202D4BD86807F1500107F1D403BE
:10368000009300232222FFF731F897ED4C7AD7ED13
:103690004F7A77EE277A254BC3ED467A97ED4B7A32
:1036A000D7ED4E7A77EE277A204BC3ED477A1E4B43
:1036B00093ED167AD7ED507A27EE277A1A4BD3ED91
:1036C000156AD7ED517A66EEA77A37EE277A164B50
:1036D000D3ED146AD7ED4A7A66EEA77A37EE677AA9
:1036E000114BD3ED136AD7ED4D7A66EEA77A37EE1C
:1036F000277A0D4BD3ED1C7A67EE277AC7ED517A06
:103700000A4B93ED487AD7ED517A37EE277AD7ED09
:10371000517A77EE277A054BC3ED487A00BF07F55B
:10372000A877BD4680BD00BF0000002060030020D8
:1037300080B592B004AF0820FFF722FA6A4B5B6FA6
:103740006A4AC2F81831684B9B6F684AC2F81C314C
:10375000654BDB6F654AC2F82031644B0022C3F829
:10376000CC20624B002283F8C8206148FFF78EFA14
:103770005E4B002283F800215C4B0122C3F8042138
:10378000FEF714F8594B012283F80821564BDB6AE7
:10379000584A1360544B5B6B564AD360524B9B6B39
:1037A000544A9361504BDB6A524A53604E4B5B6BF9
:1037B000504A13614C4B9B6B4E4AD3614A4BDB6AB8
:1037C0004C4A9360484B5B6B4A4A5361464B9B6B38
:1037D000484A1362454B002283F89020434B002255
:1037E00083F89820414B0122C3F894204248FFF708
:1037F0007BFA3E4B012283F898203C4B0022C3F811
:10380000E8203A4B002283F8E4203C48FFF73EFAD8
:10381000364B002283F80C21344B0122C3F81021CF
:10382000FFF723F8314B012283F814212F4B00229C
:1038300083F8AC202D4B002283F8B4202B4B0122BF
:10384000C3F8B0202E48FFF74FFA284B012283F827
:10385000B420264B00221A70244B00221A72234BEC
:1038600001225A602148FFF765FA204B01221A72A3
:103870001D4B9B687B621C4BDB68BB621A4B1B6950
:10388000FB62194B5B683B6307F124013B46102246
:10389000184605F088FD00233B7400237B630CE091
:1038A0007B6B013339467A6B0A44127838333B44D8
:1038B00003F8282C7B6B01337B637B6B0F2BEFDDD5
:1038C0000A4BD3F89C0007F11002642302930023F3
:1038D00001930023009311234221FDF7FBFC00BF5D
:1038E0003837BD4680BD00BF0000002060030020C7
:1038F000280400203C030020F003002044040020A2
:103900000C04002080B500AF254B93F8E430002B69
:1039100003D1234B012283F8E420214B93F8C830D4
:10392000002B03D11E4B012283F8C8201C4B93F8B7
:103930000031002B03D11A4B012283F80021184BD0
:1039400093F80C31002B03D1154B012283F80C2185
:10395000134B93F8AC30002B03D1114B012283F8A9
:10396000AC200F4B1B78002B0FD10D4B01221A708E
:103970000B4B5B68012B08D1094B1B7A002B04D041
:10398000074BDB681846FEF71BFF054B93F890309A
:10399000002B03D1024B012283F8902000BF80BD91
:1039A0006003002080B400AF00BFBD465DF8047B1B
:1039B000704700BF10B50E4C82B0636A019302F0ED
:1039C000C1FA0090626A019B9A4207D3009B01985A
:1039D0004FF47A7202FB030002B010BD02F0B2FA9B
:1039E000636A4FF47A7202FB003002B010BD00BF70
:1039F000000C004010B5044641B9FFF7DBFF034659
:103A0000181BA34238BF00F1FF3010BD02F09AFA34
:103A10000346181BA34238BF00F1FF3010BD00BFA2
:103A200080B483B000AF03463960FB7197F907306B
:103A3000002B0ADB3B68DAB20C4997F90730120118
:103A4000D2B20B4483F800230AE03B68DAB208499B
:103A5000FB7903F00F03043B1201D2B20B441A7638
:103A600000BF0C37BD465DF8047B704700E100E005
:103A700000ED00E080B582B000AF78607B68013B6C
:103A8000B3F1807F01D301230FE00A4A7B68013B39
:103A900053600F214FF0FF30FFF7C2FF054B0022AC
:103AA0009A60044B07221A60002318460837BD4667
:103AB00080BD00BF10E000E080B500AFBFF34F8FC6
:103AC00000BFBFF36F8F00BF0B4B1A680B4B1B6817
:103AD0009A4202D3084B00221A60074B1B685A1CFB
:103AE00005490A60002B05D172B600BFFEF7ECFE57
:103AF00062B600BF00BF80BD880400208C04002097
:103B000080B400AF054B5B68044A43F080535360B8
:103B100000BFBD465DF8047B704700BF00ED00E0CC
:103B200080B584B000AF87ED010A234B1B6807EE18
:103B3000903AB8EE677AD7ED017A67EE277AFCEE15
:103B4000E77A17EE903AFB60FB68B3F1807F18D3F9
:103B5000FB6807EE903AB8EE677ADFED186AC7EEB9
:103B6000267AFCEEE77A17EE903A0133144A136096
:103B7000134B1B68FA68B2FBF3F31846FFF77AFFA2
:103B800005E00F4B00221A60F868FFF773FF0D4B3A
:103B900000221A600C4A0D4B1A600F216FF00400CE
:103BA000FFF73EFF0F216FF00100FFF739FF00BF65
:103BB0001037BD4680BD00BF94000020FFFF7F4B43
:103BC0008C04002088040020B93A000890040020EA
:103BD000EFF3008001B5EFF3118003B41EF0100F76
:103BE00008BFB0EE400A0A48006803B488B004A0D9
:103BF00006904FF0807007906FF006008646704781
:103C000003BC8047BFF36F8F00DFFEE700BF0000FB
:103C1000900400201EF0100F08BFB0EE400A1EF006
:103C2000040F0CBFEFF30880EFF30980816911F8EE
:103C3000020C10B101280DD00BE01EF0100F0CBFCC
:103C40001AB008B003BC80F3118803BC80F300886D
:103C50000847FEE74EF61451CEF200010A6842F022
:103C600001020A607047F4E700BF00BF80B400AFF4
:103C7000054B1B68044A43F00103136000BFBD46B7
:103C80005DF8047B704700BF0038024080B400AF8D
:103C9000064B1B6803F00203022B0CBF0123002319
:103CA000DBB21846BD465DF8047B70470038024021
:103CB00080B483B000AF7860074B1B6823F0F80234
:103CC0007B68DB00044913430B6000BF0C37BD4623
:103CD0005DF8047B704700BF0038024080B483B0B9
:103CE00000AF7860064B9B6823F0030204497B68B1
:103CF00013438B6000BF0C37BD465DF8047B7047F3
:103D00000038024080B400AF044B9B6803F00C0302
:103D10001846BD465DF8047B704700BF003802407E
:103D200080B483B000AF7860064B9B6823F0F0024C
:103D300004497B6813438B6000BF0C37BD465DF8B8
:103D4000047B70470038024080B483B000AF7860D5
:103D5000064B9B6823F4E05204497B6813438B6055
:103D600000BF0C37BD465DF8047B70470038024049
:103D700080B483B000AF7860064B9B6823F4604248
:103D800004497B6813438B6000BF0C37BD465DF868
:103D9000047B70470038024080B483B000AF786085
:103DA000074BD3F88C3023F0807205497B681343AE
:103DB000C1F88C3000BF0C37BD465DF8047B7047FE
:103DC0000038024080B400AF054B1B68044A43F042
:103DD0008073136000BFBD465DF8047B704700BF71
:103DE0000038024080B400AF074B1B6803F000733B
:103DF000B3F1007F0CBF01230023DBB21846BD46A0
:103E00005DF8047B704700BF0038024080B485B085
:103E100000AFF860B9607A603B60114B5A68114B93
:103E20001340F968BA6811437A6892010A430C4951
:103E300013434B600A4B5B6823F4403208493B68EC
:103E400013434B60064B5B6823F0E04204493B6838
:103E500013434B6000BF1437BD465DF8047B7047C9
:103E6000003802400080BFFF80B483B000AF7860AC
:103E7000064B1B6823F00F0204497B6813430B6059
:103E800000BF0C37BD465DF8047B7047003C024024
:103E900080B400AF044B1B6803F00F031846BD4607
:103EA0005DF8047B704700BF003C024080B400AF67
:103EB000054B1B68044A43F48033136000BFBD46C2
:103EC0005DF8047B704700BF0070004080B483B091
:103ED00000AF7860064B1B6823F4404204497B68BE
:103EE00013430B6000BF0C37BD465DF8047B704781
:103EF0000070004080B500AF0520FFF7B5FF00BFA0
:103F0000FFF7C6FF0346052BFAD14FF44040FFF7F9
:103F1000DDFFFFF7CBFF1020FFF7CAFEFFF7A6FE7D
:103F200000BFFFF7B3FE0346012BFAD10023B422F2
:103F300008210020FFF76AFFFFF744FF00BFFFF7EB
:103F400051FF0346012BFAD10020FFF7E9FE4FF4A1
:103F5000A050FFF7F9FE4FF40040FFF709FF0220E1
:103F6000FFF7BCFE00BFFFF7CDFE0346082BFAD1DA
:103F7000074801F055FD002001F06EF80346002BC4
:103F800001D000F019F80020FFF706FF00BF80BD48
:103F90000095BA0A80B582B000AF78607B681B6874
:103FA000044A934201D101F0B9FF00BF0837BD4672
:103FB00080BD00BF000C004080B400AF72B600BFEF
:103FC00000BFFDE780B400AF044BDB681B0A03F0C1
:103FD00007031846BD465DF8047B704700ED00E01E
:103FE00080B483B000AF0346FB7197F90730002B14
:103FF0000BDBFB7903F01F02074997F907305B09D8
:10400000012000FA02F241F8232000BF0C37BD4620
:104010005DF8047B704700BF00E100E080B483B02E
:1040200000AF03463960FB7197F90730002B0ADBBC
:104030003B68DAB20C4997F907301201D2B20B444F
:1040400083F800230AE03B68DAB20849FB7903F001
:104050000F03043B1201D2B20B441A7600BF0C3797
:10406000BD465DF8047B704700E100E000ED00E034
:1040700080B489B000AFF860B9607A60FB6803F083
:104080000703FB61FB69C3F10703042B28BF04236B
:10409000BB61FB690433062B02D9FB69033B00E0DB
:1040A00000237B614FF0FF32BB6902FA03F3DA436E
:1040B000BB681A407B699A404FF0FF317B6901FA77
:1040C00003F3D9437B680B40134318462437BD469E
:1040D0005DF8047B7047000080B485B000AF786065
:1040E000084B1A6B07497B6813430B63054B1A6B2C
:1040F0007B681340FB60FB6800BF1437BD465DF86A
:10410000047B70470038024080B487B000AF78600D
:104110003960174A3B68DBB2023352F823203B6810
:104120001B0CDB4302EA03013B681B0C3B613B6950
:1041300093FAA3F3FB60FB687B617B69002B01D1E1
:10414000202303E07B69B3FA83F3DBB21A467B6872
:1041500003FA02F206483B68DBB20A43023340F836
:10416000232000BF1C37BD465DF8047B704700BFAD
:104170000038014080B48BB000AFF860B9607A605D
:10418000FB681A68BB687B617B6993FAA3F33B61A8
:104190003B69BB61BB69002B01D1202303E0BB69F4
:1041A000B3FA83F3DBB25B00032101FA03F3DB43D1
:1041B0001A40BB683B623B6A93FAA3F3FB61FB695D
:1041C0007B627B6A002B01D1202303E07B6AB3FA78
:1041D00083F3DBB25B00796801FA03F31A43FB68EF
:1041E0001A6000BF2C37BD465DF8047B704780B471
:1041F0008BB000AFF860B9607A60FB68DA68BB68C2
:104200007B617B6993FAA3F33B613B69BB61BB694B
:10421000002B01D1202303E0BB69B3FA83F3DBB2A7
:104220005B00032101FA03F3DB431A40BB683B62E6
:104230003B6A93FAA3F3FB61FB697B627B6A002B09
:1042400001D1202303E07B6AB3FA83F3DBB25B0086
:10425000796801FA03F31A43FB68DA6000BF2C3770
:10426000BD465DF8047B704780B483B000AF7860D2
:1042700039607B683A689A6100BF0C37BD465DF8CB
:10428000047B704780B483B000AF786039603B68CE
:104290001A047B689A6100BF0C37BD465DF8047B49
:1042A0007047000080B588B000AF07F11803002206
:1042B0001A605A603B4600221A605A609A60DA60BF
:1042C0001A615A610420FFF707FF8020FFF704FFFF
:1042D0000120FFF701FF0220FFF7FEFE4FF43871C7
:1042E0004E48FFF7C1FF80214D48FFF7BDFF4EF25A
:1042F00032014C48FFF7C6FF4FF4E8514748FFF73B
:10430000C1FF49490220FFF7FFFE4FF07041012035
:10431000FFF7FAFE4FF40053BB6101233B77002304
:104320007B770223BB7707F11803184601F020FCC6
:104330000823BB6101233B7700237B770323BB77F3
:1043400007F11803184601F013FC00224FF4005146
:104350003348FFF74CFF022208213248FFF747FF9E
:1043600000224FF400512E48FFF704FF00220821DD
:104370002C48FFF7FFFE4FF4FF533B6001237B60A7
:104380000023BB600023FB6000233B613B461946D2
:10439000224801F006F84EF212033B6001237B60D5
:1043A0000023BB600023FB6000233B613B461946B2
:1043B0001C4800F0F6FF80233B6001237B60002354
:1043C000BB600023FB6000233B613B461946144859
:1043D00000F0E7FF20233B6001237B600223BB60EA
:1043E0000023FB6000233B613B4619460D4800F06B
:1043F000D8FFFFF7E7FD0346002200211846FFF72C
:1044000037FE034619460920FFF708FE0920FFF78B
:10441000E7FD00BF2037BD4680BD00BF0000024061
:1044200000080240000402400300F00080B400AF26
:10443000044BDB681B0A03F007031846BD465DF812
:10444000047B704700ED00E080B483B000AF03460A
:10445000FB7197F90730002B0BDBFB7903F01F0290
:10446000074997F907305B09012000FA02F241F889
:10447000232000BF0C37BD465DF8047B704700BFAA
:1044800000E100E080B483B000AF03463960FB7107
:1044900097F90730002B0ADB3B68DAB20C4997F931
:1044A00007301201D2B20B4483F800230AE03B68C4
:1044B000DAB20849FB7903F00F03043B1201D2B2D0
:1044C0000B441A7600BF0C37BD465DF8047B70477D
:1044D00000E100E000ED00E080B489B000AFF860DA
:1044E000B9607A60FB6803F00703FB61FB69C3F105
:1044F0000703042B28BF0423BB61FB690433062B8D
:1045000002D9FB69033B00E000237B614FF0FF32DF
:10451000BB6902FA03F3DA43BB681A407B699A402D
:104520004FF0FF317B6901FA03F3D9437B680B40FD
:10453000134318462437BD465DF8047B70470000DE
:1045400080B485B000AF7860084B1A6B07497B6870
:1045500013430B63054B1A6B7B681340FB60FB68CE
:1045600000BF1437BD465DF8047B70470038024039
:1045700080B500AF4FF40010FFF7E2FFFFF756FFE2
:104580000346002200211846FFF7A6FF03461946FE
:104590001020FFF777FF1020FFF756FF00BF80BD08
:1045A00080B483B000AF78607B681B6823F0800222
:1045B0007B681A6000BF0C37BD465DF8047B70470E
:1045C00080B483B000AF78607B681B6823F0400242
:1045D0007B681A6000BF0C37BD465DF8047B7047EE
:1045E00080B483B000AF786039607B68DB6823F00B
:1045F000FE023B681A437B68DA6000BF0C37BD4699
:104600005DF8047B704780B483B000AF78607B684E
:10461000DB6823F001027B68DA6000BF0C37BD461F
:104620005DF8047B7047000080B485B000AF78600F
:10463000084B1A6B07497B6813430B63054B1A6BD6
:104640007B681340FB60FB6800BF1437BD465DF814
:10465000047B70470038024080B485B000AF7860BA
:10466000084B1A6C07497B6813430B64054B1A6CA3
:104670007B681340FB60FB6800BF1437BD465DF8E4
:10468000047B70470038024080B58EB000AF07F160
:10469000180320220021184604F005FE3B460022A4
:1046A0001A605A609A60DA601A615A610220FFF754
:1046B000BBFF4FF440733B6002237B600323BB606E
:1046C0000123FB6000233B6104237B613B461946C9
:1046D000164800F066FE4FF40010FFF7BDFF1448C7
:1046E000FFF791FF1248FFF76BFF1148FFF758FFE4
:1046F0000023BB610F4BFB614FF480433B620023FF
:10470000FB624FF480633B634FF480437B6307F1AC
:1047100018031946064800F0D1FF00210448FFF7AE
:104720005FFF00BF3837BD4680BD00BF00040240B8
:1047300000540040801A060080B58EB000AF07F12B
:10474000180320220021184604F0ADFD3B4600224C
:104750001A605A609A60DA601A615A610220FFF7A3
:1047600063FF0420FFF760FF4FF480633B60022388
:104770007B600323BB600123FB6000233B610423B8
:104780007B613B4619461F4800F00BFE4FF48053F7
:104790003B6002237B600323BB600123FB6000239B
:1047A0003B6104237B613B461946174800F0F9FD45
:1047B0004FF48000FFF750FF1448FFF724FF134821
:1047C000FFF7FEFE1148FFF7EBFE0023BB61104B25
:1047D000FB6100233B620023FB624FF480633B6379
:1047E0004FF480437B6307F118031946074800F034
:1047F00065FF00210548FFF7F3FE00BF3837BD46CF
:1048000080BD00BF00040240000802400058004084
:10481000A086010080B400AF044BDB681B0A03F0E4
:1048200007031846BD465DF8047B704700ED00E0C5
:1048300080B483B000AF0346FB7197F90730002BBB
:104840000BDBFB7903F01F02074997F907305B097F
:10485000012000FA02F241F8232000BF0C37BD46C8
:104860005DF8047B704700BF00E100E080B483B0D6
:1048700000AF03463960FB7197F90730002B0ADB64
:104880003B68DAB20C4997F907301201D2B20B44F7
:1048900083F800230AE03B68DAB20849FB7903F0A9
:1048A0000F03043B1201D2B20B441A7600BF0C373F
:1048B000BD465DF8047B704700E100E000ED00E0DC
:1048C00080B489B000AFF860B9607A60FB6803F02B
:1048D0000703FB61FB69C3F10703042B28BF042313
:1048E000BB61FB690433062B02D9FB69033B00E083
:1048F00000237B614FF0FF32BB6902FA03F3DA4316
:10490000BB681A407B699A404FF0FF317B6901FA1E
:1049100003F3D9437B680B40134318462437BD4645
:104920005DF8047B7047000080B485B000AF78600C
:10493000084B1A6C07497B6813430B64054B1A6CD0
:104940007B681340FB60FB6800BF1437BD465DF811
:10495000047B70470038024080B483B000AF7860B9
:104960007B681B6823F080027B681A6000BF0C37ED
:10497000BD465DF8047B704780B483B000AF7860BB
:1049800039607B689B6823F4804323F007033A680F
:104990001A437B689A6000BF0C37BD465DF8047B04
:1049A000704780B483B000AF786039607B685B6823
:1049B00023F070023B681A437B685A6000BF0C37D3
:1049C000BD465DF8047B704780B483B000AF78606B
:1049D0007B689B6823F080027B689A6000BF0C377D
:1049E000BD465DF8047B704780B586B000AF3B1DC7
:1049F00000221A605A609A60DA601A610120FFF79B
:104A000093FFFFF707FF0346002200211846FFF738
:104A100057FF034619461C20FFF728FF1C20FFF70D
:104A200007FF40F20773BB800023BB600F23FB60CE
:104A300000233B613B1D19464FF0804001F076FD9D
:104A40004FF08040FFF788FF00214FF08040FFF7D4
:104A500093FF00214FF08040FFF7A3FF4FF080400D
:104A6000FFF7B2FF00BF1837BD4680BD80B485B0E8
:104A700000AFF860B9607A600D4ABB6813441B78D8
:104A80001A46FB6813441B6823F0C0020849BB6840
:104A90000B441B781946FB680B4419467B6813438B
:104AA0000B6000BF1437BD465DF8047B704700BF44
:104AB000ECB0000880B485B000AFF860B9607A60EF
:104AC0000D4ABB6813441B781A46FB6813441B68E5
:104AD00023F490720849BB680B441B781946FB68A5
:104AE0000B4419467B6813430B6000BF1437BD4667
:104AF0005DF8047B704700BFECB0000880B485B05F
:104B000000AFF860B9607A600D4ABB6813441B7847
:104B10001A46FB6813441B6823F400720849BB68FB
:104B20000B441B781946FB680B4419467B681343FA
:104B30000B6000BF1437BD465DF8047B704700BFB3
:104B4000ECB0000880B485B000AFF860B9607A605E
:104B50000D4ABB6813441B781A46FB6813441B6854
:104B600023F480620849BB680B441B781946FB6834
:104B70000B4419467B6813430B6000BF1437BD46D6
:104B80005DF8047B704700BFECB0000880B485B0CE
:104B900000AFF860B9607A600D4ABB6813441B78B7
:104BA0001A46FB6813441B6823F4C0520849BB68CB
:104BB0000B441B781946FB680B4419467B6813436A
:104BC0000B6000BF1437BD465DF8047B704700BF23
:104BD000ECB0000880B485B000AFF860B9607A60CE
:104BE0000D4ABB6813441B781A46FB6813441B68C4
:104BF00023F4C0420849BB680B441B781946FB6884
:104C00000B4419467B6813430B6000BF1437BD4645
:104C10005DF8047B704700BFECB0000880B485B03D
:104C200000AFF860B9607A600D4ABB6813441B7826
:104C30001A46FB6813441B6823F440320849BB68DA
:104C40000B441B781946FB680B4419467B681343D9
:104C50000B6000BF1437BD465DF8047B704700BF92
:104C6000ECB0000880B485B000AFF860B9607A603D
:104C70000D4ABB6813441B781A46FB6813441B6833
:104C800023F060620849BB680B441B781946FB6837
:104C90000B4419467B6813430B6000BF1437BD46B5
:104CA0005DF8047B704700BFECB0000880B483B0AF
:104CB00000AF786039600C4A3B6813441B781A4691
:104CC0007B6813445B6908493A680A4412781146C4
:104CD0007A680A4423F00403536100BF0C37BD46D1
:104CE0005DF8047B704700BFECB0000880B485B06D
:104CF00000AF7860084B1A6B07497B6813430B635E
:104D0000054B1A6B7B681340FB60FB6800BF1437D0
:104D1000BD465DF8047B70470038024080B485B022
:104D200000AF7860084B1A6C07497B6813430B642B
:104D3000054B1A6C7B681340FB60FB6800BF14379F
:104D4000BD465DF8047B70470038024080B483B0F4
:104D500000AF78607B68DB6843F400527B68DA6000
:104D600000BF0C37BD465DF8047B704780B483B04C
:104D700000AF78607B681B6923F490427B681A61FE
:104D80007B685B6923F02A027B685A6100BF0C379D
:104D9000BD465DF8047B704780B58EB000AF07F16B
:104DA0001C0300221A605A609A60DA601A615A6124
:104DB0009A613B1D00221A605A609A60DA601A619B
:104DC0005A614FF40030FFF7A9FF0120FFF78EFF73
:104DD0000C237B600223BB600323FB6000233B6149
:104DE00000237B610723BB613B1D1946274800F068
:104DF000D8FA4FF0006205212548FFF733FF002263
:104E000005212348FFF732FE002205212048FFF745
:104E100005FF002205211E48FFF74CFE0022052158
:104E20001B48FFF76BFE4FF4806205211848FFF71F
:104E300089FE002205211648FFF7A8FE0022052161
:104E40001348FFF7C7FE05211148FFF72FFF4FF466
:104E5000E133FB6100233B6200237B620023BB62E2
:104E60000C23FB6200233B6300237B6307F11C03DD
:104E70001946084801F05CFE0648FFF777FF054831
:104E8000FFF764FF00BF3837BD4680BD0000024019
:104E9000006002400044004080B58EB000AF07F1D2
:104EA0001C0300221A605A609A60DA601A615A6123
:104EB0009A613B1D00221A605A609A60DA601A619A
:104EC0005A614FF48020FFF729FF0420FFF70EFFFF
:104ED0004FF440637B600223BB600323FB6000232D
:104EE0003B6100237B610723BB613B1D19461148D1
:104EF00000F057FA4FF41653FB6100233B62002386
:104F00007B620023BB620C23FB6200233B63002314
:104F10007B6307F11C031946074801F009FE0648A8
:104F2000FFF724FF0448FFF711FF00BF3837BD46E5
:104F300080BD00BF000802400048004080B483B03C
:104F400000AF7860074B5A697B6813407A689A42D1
:104F50000CBF01230023DBB218460C37BD465DF8B9
:104F6000047B7047003C014080B483B000AF7860A0
:104F7000044A7B68536100BF0C37BD465DF8047B73
:104F8000704700BF003C014080B400AF00BFFDE7A8
:104F900080B400AF00BFFDE780B400AF00BFFDE705
:104FA00080B400AF00BFFDE780B400AF00BFFDE7F5
:104FB00080B400AF00BFBD465DF8047B704780B58C
:104FC00000AF0820FFF7BAFF0346002B02D00820ED
:104FD000FFF7CAFF00BF80BD80B400AF00BFBD4671
:104FE0005DF8047B704780B400AF00BFBD465DF83C
:104FF000047B704780B500AF024801F079F800BF2C
:1050000080BD00BF9404002080B582B000AF0023B3
:105010007B60104B5B6C0F4A43F4804353640D4B31
:105020005B6C03F480437B607B6800233B60094B2F
:105030001B6C084A43F080531364064B1B6C03F04F
:1050400080533B603B68072000F011FF00BF08372A
:10505000BD4680BD0038024080B58CB000AF78609E
:105060000023FB620023BB6200227968322000F03B
:1050700009FF322000F022FF0023FB601F4B1B6C56
:105080001E4A43F0080313641C4B1B6C03F0080317
:10509000FB60FB6807F1100207F114031146184684
:1050A00000F006FE00F0F0FD03465B00FB62FB6AC9
:1050B000134AA2FB03239B0C013BBB62114B124A18
:1050C0001A60104B40F2E732DA600E4ABB6A536056
:1050D0000C4B00221A610B4B00229A60094800F029
:1050E0003DFF0346002B04D1064800F091FF034624
:1050F00000E0012318463037BD4680BD003802402D
:1051000083DE1B4394040020000C004080B48BB06D
:1051100000AFF860B9607A60FB681A68BB687B61B1
:105120007B6993FAA3F33B613B69BB61BB69002BCD
:1051300001D1202303E0BB69B3FA83F3DBB25B0048
:10514000032101FA03F3DB431A40BB683B623B6A6D
:1051500093FAA3F3FB61FB697B627B6A002B01D1AD
:10516000202303E07B6AB3FA83F3DBB25B00796848
:1051700001FA03F31A43FB681A6000BF2C37BD46DF
:105180005DF8047B704780B485B000AFF860B9600B
:105190007A60FB685A68BB68DB431A40BB68796871
:1051A00001FB03F31A43FB685A6000BF1437BD4686
:1051B0005DF8047B704780B48BB000AFF860B960D5
:1051C0007A60FB689A68BB687B617B6993FAA3F39A
:1051D0003B613B69BB61BB69002B01D1202303E02C
:1051E000BB69B3FA83F3DBB25B00032101FA03F37B
:1051F000DB431A40BB683B623B6A93FAA3F3FB6153
:10520000FB697B627B6A002B01D1202303E07B6A70
:10521000B3FA83F3DBB25B00796801FA03F31A4354
:10522000FB689A6000BF2C37BD465DF8047B704771
:1052300080B48BB000AFF860B9607A60FB68DA6860
:10524000BB687B617B6993FAA3F33B613B69BB61FC
:10525000BB69002B01D1202303E0BB69B3FA83F3C0
:10526000DBB25B00032101FA03F3DB431A40BB68A6
:105270003B623B6A93FAA3F3FB61FB697B627B6A47
:10528000002B01D1202303E07B6AB3FA83F3DBB266
:105290005B00796801FA03F31A43FB68DA6000BF28
:1052A0002C37BD465DF8047B704780B48BB000AFEF
:1052B000F860B9607A60FB681A6ABB687B617B69D9
:1052C00093FAA3F33B613B69BB61BB69002B01D13E
:1052D000202303E0BB69B3FA83F3DBB29B000F2109
:1052E00001FA03F3DB431A40BB683B623B6A93FA63
:1052F000A3F3FB61FB697B627B6A002B01D1202356
:1053000003E07B6AB3FA83F3DBB29B00796801FAAE
:1053100003F31A43FB681A6200BF2C37BD465DF8E1
:10532000047B704780B48BB000AFF860B9607A60DE
:10533000FB685A6ABB681B0A7B617B6993FAA3F31B
:105340003B613B69BB61BB69002B01D1202303E0BA
:10535000BB69B3FA83F3DBB29B000F2101FA03F3BD
:10536000DB431A40BB681B0A3B623B6A93FAA3F318
:10537000FB61FB697B627B6A002B01D1202303E088
:105380007B6AB3FA83F3DBB29B00796801FA03F31B
:105390001A43FB685A6200BF2C37BD465DF8047B98
:1053A000704780B58AB000AF7860396000237B62B7
:1053B00000233B623B681B68BB61BB6993FAA3F3A4
:1053C0007B617B69FB61FB69002B01D1202303E03A
:1053D000FB69B3FA83F3DBB27B6257E03B681A6880
:1053E00001217B6A01FA03F313403B623B6A002B05
:1053F00049D03B685B68012B03D03B685B68022B9C
:105400000DD13B689B681A46396A7868FFF7D3FE6E
:105410003B68DB681A46396A7868FFF7B4FE3B6878
:105420001B691A46396A7868FFF702FF3B685B68B8
:10543000022B21D13B6AFB60FB6893FAA3F3BB60AC
:10544000BB683B613B69002B01D1202303E03B6932
:10545000B3FA83F3DBB2072B07D83B685B691A46C4
:10546000396A7868FFF721FF06E03B685B691A46F6
:10547000396A7868FFF756FF3B685B681A46396AF5
:105480007868FFF743FE7B6A01337B623B681A68EA
:105490007B6A22FA03F3002BA0D100231846283799
:1054A000BD4680BD80B483B000AF78607B681B6868
:1054B00043F001027B681A6000BF0C37BD465DF8FF
:1054C000047B704780B483B000AF78607B681B6852
:1054D00023F001027B681A6000BF0C37BD465DF8FF
:1054E000047B704780B485B000AFF860B9607A6023
:1054F000FB685B6A23F01F02B9687B680B431A43A1
:10550000FB685A6200BF1437BD465DF8047B7047E4
:1055100080B485B000AFF860B9607A60FB689B68C2
:1055200023F4034323F0FF03B9687A680A431A435C
:10553000FB689A6000BF1437BD465DF8047B704776
:1055400080B487B000AFF860B9607A603B60002338
:105550003B6100237B61BB68424AA2FB03239B0C97
:105560003B61FB685B6823F03F023B691A43FB68C1
:105570005A60FB681B6A23F03F027B683A498B4202
:1055800002D83B69013309E03B694FF4967101FB96
:1055900003F33649A1FB03139B0901331A43FB684C
:1055A0001A627B68304A934239D93B68002B17D185
:1055B0007A6813465B001344BA68B2FBF3F3C3F393
:1055C0000B03002B09D07A6813465B001344BA68BA
:1055D000B2FBF3F343F400431DE048F201031AE089
:1055E0007A6813469B0013449A001344BA68B2FBCE
:1055F000F3F3C3F30B03002B0BD07A6813469B0025
:1056000013449A001344BA68B2FBF3F343F4004323
:1056100001E048F201033A6813437B6111E07B68C3
:105620005B00BA68B2FBF3F240F6FC731340002B48
:1056300005D07B685B00BA68B2FBF3F300E004239B
:105640007B61FB68DB6923F44F4323F0FF037A6936
:105650001A43FB68DA6100BF1C37BD465DF8047B66
:10566000704700BF83DE1B43A0860100D34D62104C
:1056700080B483B000AF786039607B681B6823F02A
:105680001A023B681A437B681A6000BF0C37BD469C
:105690005DF8047B704780B483B000AF78603960F8
:1056A0007B681B6823F480623B681A437B681A603E
:1056B00000BF0C37BD465DF8047B704780B586B0EF
:1056C00000AF786039607868FFF7FCFE07F10803E7
:1056D000184600F0ABF83B68D9683B681B691A466E
:1056E0007868FFF7FFFE39693B685A683B689B683A
:1056F0007868FFF725FF3B6859693B68DB691A4604
:105700007868FFF705FF3B681B6819467868FFF764
:10571000AFFF7868FFF7C6FE3B689B69194678685B
:10572000FFF7B9FF002318461837BD4680BD0000BB
:1057300080B400AF044B9B6803F00C031846BD46D1
:105740005DF8047B704700BF0038024080B400AFB2
:10575000044B9B6803F0F0031846BD465DF8047BDC
:10576000704700BF0038024080B400AF044B9B6814
:1057700003F4E0531846BD465DF8047B704700BF54
:105780000038024080B400AF044B9B6803F46043D0
:105790001846BD465DF8047B704700BF00380240E4
:1057A00080B400AF044B5B6803F480031846BD4629
:1057B0005DF8047B704700BF0038024080B400AF42
:1057C000044B5B689B09C3F308031846BD465DF8AC
:1057D000047B70470038024080B400AF044B5B6824
:1057E00003F440331846BD465DF8047B704700BFA4
:1057F0000038024080B400AF044B5B6803F0E04324
:105800001846BD465DF8047B704700BF0038024073
:1058100080B400AF044B5B6803F03F031846BD46FD
:105820005DF8047B704700BF0038024080B582B04D
:1058300000AF786000F020F802467B681A607B6851
:105840001B68184600F05CF802467B685A607B686B
:105850005B68184600F06AF802467B689A607B68CD
:105860005B68184600F076F802467B68DA6000BF95
:105870000837BD4680BD000080B582B000AF002370
:105880007B60FFF755FF03460C2B2DD801A252F881
:1058900023F000BFC9580008E9580008E95800087B
:1058A000E9580008CF580008E9580008E9580008EE
:1058B000E9580008D5580008E9580008E9580008D8
:1058C000E9580008DF5800080B4B7B600FE00B4BDA
:1058D0007B600CE0082000F051F8786007E00C20B5
:1058E00000F04CF8786002E0034B7B6000BF7B68FF
:1058F00018460837BD4680BD0024F40000127A0027
:1059000080B582B000AF7860FFF720FF03461B0927
:1059100003F00F03044AD35C1A467B68D340184651
:105920000837BD4680BD00BFF4B0000880B582B026
:1059300000AF7860FFF718FF03469B0A044AD35C68
:105940001A467B68D34018460837BD4680BD00BF65
:1059500004B1000880B582B000AF7860FFF712FF95
:1059600003465B0B044AD35C1A467B68D340184657
:105970000837BD4680BD00BF04B1000890B587B0B0
:1059800000AF786000237B610023FB6000233B6154
:10599000FFF706FFF860FB68002B04D0FB68B3F547
:1059A000800F03D005E01C4B7B6105E01B4B7B6146
:1059B00002E0194B7B6100BF7B68082B14D1FFF715
:1059C00027FF02467B69B3FBF2F4FFF7F7FE0346BD
:1059D00003FB04F4FFF700FF03461B0C01335B00DD
:1059E000B4FBF3F33B6111E0FFF712FF02467B6962
:1059F000B3FBF2F4FFF7E2FE034603FB04F4FFF708
:105A0000F9FE03461B0FB4FBF3F33B613B691846F9
:105A10001C37BD4690BD00BF0024F40000127A0080
:105A200080B483B000AF7860044A7B68136000BF25
:105A30000C37BD465DF8047B704700BF9400002022
:105A400080B483B000AF7860054B1A6804497B6866
:105A500013430B6000BF0C37BD465DF8047B7047F5
:105A6000003C014080B483B000AF7860064B1A68F8
:105A70007B68DB43044913400B6000BF0C37BD4615
:105A80005DF8047B704700BF003C014080B483B0E8
:105A900000AF7860054B5A6804497B6813434B603C
:105AA00000BF0C37BD465DF8047B7047003C0140E9
:105AB00080B483B000AF7860064B5A687B68DB43E4
:105AC000044913404B6000BF0C37BD465DF8047BB2
:105AD000704700BF003C014080B483B000AF7860E5
